{
  "contractName": "DeFiLoan",
  "abi": [
    {
      "inputs": [
        {
          "internalType": "address",
          "name": "_tokenAddress",
          "type": "address"
        }
      ],
      "stateMutability": "nonpayable",
      "type": "constructor"
    },
    {
      "anonymous": false,
      "inputs": [
        {
          "indexed": true,
          "internalType": "address",
          "name": "borrower",
          "type": "address"
        },
        {
          "indexed": false,
          "internalType": "uint256",
          "name": "amount",
          "type": "uint256"
        },
        {
          "indexed": false,
          "internalType": "uint256",
          "name": "interest",
          "type": "uint256"
        },
        {
          "indexed": false,
          "internalType": "uint256",
          "name": "dueDate",
          "type": "uint256"
        },
        {
          "indexed": false,
          "internalType": "bool",
          "name": "isRepaid",
          "type": "bool"
        }
      ],
      "name": "LoanCreated",
      "type": "event"
    },
    {
      "anonymous": false,
      "inputs": [
        {
          "indexed": true,
          "internalType": "address",
          "name": "borrower",
          "type": "address"
        },
        {
          "indexed": false,
          "internalType": "uint256",
          "name": "loanIndex",
          "type": "uint256"
        }
      ],
      "name": "LoanRepaid",
      "type": "event"
    },
    {
      "anonymous": false,
      "inputs": [
        {
          "indexed": false,
          "internalType": "address",
          "name": "owner",
          "type": "address"
        }
      ],
      "name": "OwnerAddress",
      "type": "event"
    },
    {
      "inputs": [
        {
          "internalType": "address",
          "name": "",
          "type": "address"
        },
        {
          "internalType": "uint256",
          "name": "",
          "type": "uint256"
        }
      ],
      "name": "activeLoans",
      "outputs": [
        {
          "internalType": "uint256",
          "name": "amount",
          "type": "uint256"
        },
        {
          "internalType": "uint256",
          "name": "interest",
          "type": "uint256"
        },
        {
          "internalType": "uint256",
          "name": "dueDate",
          "type": "uint256"
        },
        {
          "internalType": "address",
          "name": "borrower",
          "type": "address"
        },
        {
          "internalType": "bool",
          "name": "isRepaid",
          "type": "bool"
        }
      ],
      "stateMutability": "view",
      "type": "function"
    },
    {
      "inputs": [],
      "name": "owner",
      "outputs": [
        {
          "internalType": "address payable",
          "name": "",
          "type": "address"
        }
      ],
      "stateMutability": "view",
      "type": "function"
    },
    {
      "inputs": [
        {
          "internalType": "address",
          "name": "",
          "type": "address"
        },
        {
          "internalType": "uint256",
          "name": "",
          "type": "uint256"
        }
      ],
      "name": "paidLoans",
      "outputs": [
        {
          "internalType": "uint256",
          "name": "amount",
          "type": "uint256"
        },
        {
          "internalType": "uint256",
          "name": "interest",
          "type": "uint256"
        },
        {
          "internalType": "uint256",
          "name": "dueDate",
          "type": "uint256"
        },
        {
          "internalType": "address",
          "name": "borrower",
          "type": "address"
        },
        {
          "internalType": "bool",
          "name": "isRepaid",
          "type": "bool"
        }
      ],
      "stateMutability": "view",
      "type": "function"
    },
    {
      "inputs": [],
      "name": "token",
      "outputs": [
        {
          "internalType": "contract IERC20",
          "name": "",
          "type": "address"
        }
      ],
      "stateMutability": "view",
      "type": "function"
    },
    {
      "inputs": [
        {
          "internalType": "uint256",
          "name": "_amount",
          "type": "uint256"
        },
        {
          "internalType": "uint256",
          "name": "_dueDate",
          "type": "uint256"
        }
      ],
      "name": "createLoan",
      "outputs": [],
      "stateMutability": "payable",
      "type": "function"
    },
    {
      "inputs": [
        {
          "internalType": "address",
          "name": "_borrower",
          "type": "address"
        }
      ],
      "name": "getActiveLoans",
      "outputs": [
        {
          "components": [
            {
              "internalType": "uint256",
              "name": "amount",
              "type": "uint256"
            },
            {
              "internalType": "uint256",
              "name": "interest",
              "type": "uint256"
            },
            {
              "internalType": "uint256",
              "name": "dueDate",
              "type": "uint256"
            },
            {
              "internalType": "address",
              "name": "borrower",
              "type": "address"
            },
            {
              "internalType": "bool",
              "name": "isRepaid",
              "type": "bool"
            }
          ],
          "internalType": "struct ILoan.Loan[]",
          "name": "",
          "type": "tuple[]"
        }
      ],
      "stateMutability": "view",
      "type": "function"
    },
    {
      "inputs": [
        {
          "internalType": "address",
          "name": "_borrower",
          "type": "address"
        }
      ],
      "name": "getPaidLoans",
      "outputs": [
        {
          "components": [
            {
              "internalType": "uint256",
              "name": "amount",
              "type": "uint256"
            },
            {
              "internalType": "uint256",
              "name": "interest",
              "type": "uint256"
            },
            {
              "internalType": "uint256",
              "name": "dueDate",
              "type": "uint256"
            },
            {
              "internalType": "address",
              "name": "borrower",
              "type": "address"
            },
            {
              "internalType": "bool",
              "name": "isRepaid",
              "type": "bool"
            }
          ],
          "internalType": "struct ILoan.Loan[]",
          "name": "",
          "type": "tuple[]"
        }
      ],
      "stateMutability": "view",
      "type": "function"
    },
    {
      "inputs": [
        {
          "internalType": "address",
          "name": "_borrower",
          "type": "address"
        },
        {
          "internalType": "uint256",
          "name": "_index",
          "type": "uint256"
        }
      ],
      "name": "repayLoan",
      "outputs": [],
      "stateMutability": "payable",
      "type": "function"
    },
    {
      "inputs": [],
      "name": "depositFunds",
      "outputs": [],
      "stateMutability": "payable",
      "type": "function"
    },
    {
      "inputs": [],
      "name": "getContractBalance",
      "outputs": [
        {
          "internalType": "uint256",
          "name": "",
          "type": "uint256"
        }
      ],
      "stateMutability": "view",
      "type": "function"
    },
    {
      "inputs": [
        {
          "internalType": "address",
          "name": "_borrower",
          "type": "address"
        }
      ],
      "name": "getBorrowerBalance",
      "outputs": [
        {
          "internalType": "uint256",
          "name": "",
          "type": "uint256"
        }
      ],
      "stateMutability": "view",
      "type": "function"
    },
    {
      "inputs": [
        {
          "internalType": "uint256",
          "name": "_amount",
          "type": "uint256"
        },
        {
          "internalType": "uint256",
          "name": "_interest",
          "type": "uint256"
        }
      ],
      "name": "calculateInterest",
      "outputs": [
        {
          "internalType": "uint256",
          "name": "",
          "type": "uint256"
        }
      ],
      "stateMutability": "pure",
      "type": "function"
    }
  ],
  "bytecode": "0x60806040523480156200001157600080fd5b5060405162001f7838038062001f78833981810160405281019062000037919062000182565b336000806101000a81548173ffffffffffffffffffffffffffffffffffffffff021916908373ffffffffffffffffffffffffffffffffffffffff16021790555080600160006101000a81548173ffffffffffffffffffffffffffffffffffffffff021916908373ffffffffffffffffffffffffffffffffffffffff1602179055507fc3c459f585122b8115ae62dec419cce9035dcdc5d1e953a3a6f12bb36560741360008054906101000a900473ffffffffffffffffffffffffffffffffffffffff166040516200010991906200021f565b60405180910390a1506200023c565b600080fd5b600073ffffffffffffffffffffffffffffffffffffffff82169050919050565b60006200014a826200011d565b9050919050565b6200015c816200013d565b81146200016857600080fd5b50565b6000815190506200017c8162000151565b92915050565b6000602082840312156200019b576200019a62000118565b5b6000620001ab848285016200016b565b91505092915050565b6000819050919050565b6000620001df620001d9620001d3846200011d565b620001b4565b6200011d565b9050919050565b6000620001f382620001be565b9050919050565b60006200020782620001e6565b9050919050565b6200021981620001fa565b82525050565b60006020820190506200023660008301846200020e565b92915050565b611d2c806200024c6000396000f3fe6080604052600436106100a75760003560e01c806393a595f51161006457806393a595f5146101fa57806398cd90b51461021657806399635d5c14610232578063e2c41dbc14610273578063efdd7c071461027d578063fc0c546a146102ba576100a7565b806303d1a1a1146100ac57806321111063146100e9578063661ca0371461012a5780636f9fb98a146101675780637e15b0b2146101925780638da5cb5b146101cf575b600080fd5b3480156100b857600080fd5b506100d360048036038101906100ce91906111ab565b6102e5565b6040516100e09190611332565b60405180910390f35b3480156100f557600080fd5b50610110600480360381019061010b9190611380565b610412565b6040516101219594939291906113ed565b60405180910390f35b34801561013657600080fd5b50610151600480360381019061014c91906111ab565b610492565b60405161015e9190611332565b60405180910390f35b34801561017357600080fd5b5061017c6105bf565b6040516101899190611440565b60405180910390f35b34801561019e57600080fd5b506101b960048036038101906101b491906111ab565b6105c7565b6040516101c69190611440565b60405180910390f35b3480156101db57600080fd5b506101e46105e8565b6040516101f1919061147c565b60405180910390f35b610214600480360381019061020f9190611380565b61060c565b005b610230600480360381019061022b9190611497565b610b2d565b005b34801561023e57600080fd5b5061025960048036038101906102549190611380565b610fad565b60405161026a9594939291906113ed565b60405180910390f35b61027b61102d565b005b34801561028957600080fd5b506102a4600480360381019061029f9190611497565b611100565b6040516102b19190611440565b60405180910390f35b3480156102c657600080fd5b506102cf611122565b6040516102dc9190611536565b60405180910390f35b6060600260008373ffffffffffffffffffffffffffffffffffffffff1673ffffffffffffffffffffffffffffffffffffffff168152602001908152602001600020805480602002602001604051908101604052809291908181526020016000905b8282101561040757838290600052602060002090600402016040518060a00160405290816000820154815260200160018201548152602001600282015481526020016003820160009054906101000a900473ffffffffffffffffffffffffffffffffffffffff1673ffffffffffffffffffffffffffffffffffffffff1673ffffffffffffffffffffffffffffffffffffffff1681526020016003820160149054906101000a900460ff16151515158152505081526020019060010190610346565b505050509050919050565b6002602052816000526040600020818154811061042e57600080fd5b9060005260206000209060040201600091509150508060000154908060010154908060020154908060030160009054906101000a900473ffffffffffffffffffffffffffffffffffffffff16908060030160149054906101000a900460ff16905085565b6060600360008373ffffffffffffffffffffffffffffffffffffffff1673ffffffffffffffffffffffffffffffffffffffff168152602001908152602001600020805480602002602001604051908101604052809291908181526020016000905b828210156105b457838290600052602060002090600402016040518060a00160405290816000820154815260200160018201548152602001600282015481526020016003820160009054906101000a900473ffffffffffffffffffffffffffffffffffffffff1673ffffffffffffffffffffffffffffffffffffffff1673ffffffffffffffffffffffffffffffffffffffff1681526020016003820160149054906101000a900460ff161515151581525050815260200190600101906104f3565b505050509050919050565b600047905090565b60008173ffffffffffffffffffffffffffffffffffffffff16319050919050565b60008054906101000a900473ffffffffffffffffffffffffffffffffffffffff1681565b600260008373ffffffffffffffffffffffffffffffffffffffff1673ffffffffffffffffffffffffffffffffffffffff168152602001908152602001600020805490508110610690576040517f08c379a0000000000000000000000000000000000000000000000000000000008152600401610687906115ae565b60405180910390fd5b6000600260008473ffffffffffffffffffffffffffffffffffffffff1673ffffffffffffffffffffffffffffffffffffffff16815260200190815260200160002082815481106106e3576106e26115ce565b5b90600052602060002090600402019050600061070782600001548360010154611100565b9050600081836000015461071b919061162c565b905080600160009054906101000a900473ffffffffffffffffffffffffffffffffffffffff1673ffffffffffffffffffffffffffffffffffffffff166370a08231336040518263ffffffff1660e01b81526004016107799190611682565b602060405180830381865afa158015610796573d6000803e3d6000fd5b505050506040513d601f19601f820116820180604052508101906107ba91906116b2565b10156107fb576040517f08c379a00000000000000000000000000000000000000000000000000000000081526004016107f29061172b565b60405180910390fd5b80600160009054906101000a900473ffffffffffffffffffffffffffffffffffffffff1673ffffffffffffffffffffffffffffffffffffffff1663dd62ed3e33306040518363ffffffff1660e01b815260040161085992919061174b565b602060405180830381865afa158015610876573d6000803e3d6000fd5b505050506040513d601f19601f8201168201806040525081019061089a91906116b2565b10156108db576040517f08c379a00000000000000000000000000000000000000000000000000000000081526004016108d2906117c0565b60405180910390fd5b600160009054906101000a900473ffffffffffffffffffffffffffffffffffffffff1673ffffffffffffffffffffffffffffffffffffffff166323b872dd3360008054906101000a900473ffffffffffffffffffffffffffffffffffffffff16846040518463ffffffff1660e01b815260040161095a93929190611801565b6020604051808303816000875af1158015610979573d6000803e3d6000fd5b505050506040513d601f19601f8201168201806040525081019061099d9190611864565b5060018360030160146101000a81548160ff021916908315150217905550600360008673ffffffffffffffffffffffffffffffffffffffff1673ffffffffffffffffffffffffffffffffffffffff1681526020019081526020016000208390806001815401808255809150506001900390600052602060002090600402016000909190919091506000820154816000015560018201548160010155600282015481600201556003820160009054906101000a900473ffffffffffffffffffffffffffffffffffffffff168160030160006101000a81548173ffffffffffffffffffffffffffffffffffffffff021916908373ffffffffffffffffffffffffffffffffffffffff1602179055506003820160149054906101000a900460ff168160030160146101000a81548160ff02191690831515021790555050508473ffffffffffffffffffffffffffffffffffffffff167fc200a1f31dd659e356e0f112c82558e25f49f7b0f84438691cd96f5cb355882385604051610b1e9190611440565b60405180910390a25050505050565b60008211610b70576040517f08c379a0000000000000000000000000000000000000000000000000000000008152600401610b67906118dd565b60405180910390fd5b428111610bb2576040517f08c379a0000000000000000000000000000000000000000000000000000000008152600401610ba990611949565b60405180910390fd5b81600160009054906101000a900473ffffffffffffffffffffffffffffffffffffffff1673ffffffffffffffffffffffffffffffffffffffff166370a08231336040518263ffffffff1660e01b8152600401610c0e9190611682565b602060405180830381865afa158015610c2b573d6000803e3d6000fd5b505050506040513d601f19601f82011682018060405250810190610c4f91906116b2565b1015610c90576040517f08c379a0000000000000000000000000000000000000000000000000000000008152600401610c879061172b565b60405180910390fd5b600160009054906101000a900473ffffffffffffffffffffffffffffffffffffffff1673ffffffffffffffffffffffffffffffffffffffff166323b872dd3330856040518463ffffffff1660e01b8152600401610cef93929190611969565b6020604051808303816000875af1158015610d0e573d6000803e3d6000fd5b505050506040513d601f19601f82011682018060405250810190610d329190611864565b50600260003373ffffffffffffffffffffffffffffffffffffffff1673ffffffffffffffffffffffffffffffffffffffff1681526020019081526020016000206040518060a00160405280848152602001600a81526020018381526020013373ffffffffffffffffffffffffffffffffffffffff16815260200160001515815250908060018154018082558091505060019003906000526020600020906004020160009091909190915060008201518160000155602082015181600101556040820151816002015560608201518160030160006101000a81548173ffffffffffffffffffffffffffffffffffffffff021916908373ffffffffffffffffffffffffffffffffffffffff16021790555060808201518160030160146101000a81548160ff021916908315150217905550505034471015610ea6576040517f08c379a0000000000000000000000000000000000000000000000000000000008152600401610e9d90611a12565b60405180910390fd5b60003373ffffffffffffffffffffffffffffffffffffffff1634604051610ecc90611a63565b60006040518083038185875af1925050503d8060008114610f09576040519150601f19603f3d011682016040523d82523d6000602084013e610f0e565b606091505b5050905080610f52576040517f08c379a0000000000000000000000000000000000000000000000000000000008152600401610f4990611ac4565b60405180910390fd5b3373ffffffffffffffffffffffffffffffffffffffff167f4e7efa62621577e2d2f3ce157441935bee772531de9e2152ced5712245b450d684600a856000604051610fa09493929190611b1f565b60405180910390a2505050565b60036020528160005260406000208181548110610fc957600080fd5b9060005260206000209060040201600091509150508060000154908060010154908060020154908060030160009054906101000a900473ffffffffffffffffffffffffffffffffffffffff16908060030160149054906101000a900460ff16905085565b60008054906101000a900473ffffffffffffffffffffffffffffffffffffffff1673ffffffffffffffffffffffffffffffffffffffff163373ffffffffffffffffffffffffffffffffffffffff16146110bb576040517f08c379a00000000000000000000000000000000000000000000000000000000081526004016110b290611bb0565b60405180910390fd5b600034116110fe576040517f08c379a00000000000000000000000000000000000000000000000000000000081526004016110f590611c1c565b60405180910390fd5b565b6000606482846111109190611c3c565b61111a9190611cc5565b905092915050565b600160009054906101000a900473ffffffffffffffffffffffffffffffffffffffff1681565b600080fd5b600073ffffffffffffffffffffffffffffffffffffffff82169050919050565b60006111788261114d565b9050919050565b6111888161116d565b811461119357600080fd5b50565b6000813590506111a58161117f565b92915050565b6000602082840312156111c1576111c0611148565b5b60006111cf84828501611196565b91505092915050565b600081519050919050565b600082825260208201905092915050565b6000819050602082019050919050565b6000819050919050565b61121781611204565b82525050565b6112268161116d565b82525050565b60008115159050919050565b6112418161122c565b82525050565b60a08201600082015161125d600085018261120e565b506020820151611270602085018261120e565b506040820151611283604085018261120e565b506060820151611296606085018261121d565b5060808201516112a96080850182611238565b50505050565b60006112bb8383611247565b60a08301905092915050565b6000602082019050919050565b60006112df826111d8565b6112e981856111e3565b93506112f4836111f4565b8060005b8381101561132557815161130c88826112af565b9750611317836112c7565b9250506001810190506112f8565b5085935050505092915050565b6000602082019050818103600083015261134c81846112d4565b905092915050565b61135d81611204565b811461136857600080fd5b50565b60008135905061137a81611354565b92915050565b6000806040838503121561139757611396611148565b5b60006113a585828601611196565b92505060206113b68582860161136b565b9150509250929050565b6113c981611204565b82525050565b6113d88161116d565b82525050565b6113e78161122c565b82525050565b600060a08201905061140260008301886113c0565b61140f60208301876113c0565b61141c60408301866113c0565b61142960608301856113cf565b61143660808301846113de565b9695505050505050565b600060208201905061145560008301846113c0565b92915050565b60006114668261114d565b9050919050565b6114768161145b565b82525050565b6000602082019050611491600083018461146d565b92915050565b600080604083850312156114ae576114ad611148565b5b60006114bc8582860161136b565b92505060206114cd8582860161136b565b9150509250929050565b6000819050919050565b60006114fc6114f76114f28461114d565b6114d7565b61114d565b9050919050565b600061150e826114e1565b9050919050565b600061152082611503565b9050919050565b61153081611515565b82525050565b600060208201905061154b6000830184611527565b92915050565b600082825260208201905092915050565b7f4c6f616e20646f6573206e6f7420657869737400000000000000000000000000600082015250565b6000611598601383611551565b91506115a382611562565b602082019050919050565b600060208201905081810360008301526115c78161158b565b9050919050565b7f4e487b7100000000000000000000000000000000000000000000000000000000600052603260045260246000fd5b7f4e487b7100000000000000000000000000000000000000000000000000000000600052601160045260246000fd5b600061163782611204565b915061164283611204565b9250827fffffffffffffffffffffffffffffffffffffffffffffffffffffffffffffffff03821115611677576116766115fd565b5b828201905092915050565b600060208201905061169760008301846113cf565b92915050565b6000815190506116ac81611354565b92915050565b6000602082840312156116c8576116c7611148565b5b60006116d68482850161169d565b91505092915050565b7f496e73756666696369656e7420746f6b656e2062616c616e6365000000000000600082015250565b6000611715601a83611551565b9150611720826116df565b602082019050919050565b6000602082019050818103600083015261174481611708565b9050919050565b600060408201905061176060008301856113cf565b61176d60208301846113cf565b9392505050565b7f546f6b656e20616c6c6f77616e636520746f6f206c6f77000000000000000000600082015250565b60006117aa601783611551565b91506117b582611774565b602082019050919050565b600060208201905081810360008301526117d98161179d565b9050919050565b60006117eb82611503565b9050919050565b6117fb816117e0565b82525050565b600060608201905061181660008301866113cf565b61182360208301856117f2565b61183060408301846113c0565b949350505050565b6118418161122c565b811461184c57600080fd5b50565b60008151905061185e81611838565b92915050565b60006020828403121561187a57611879611148565b5b60006118888482850161184f565b91505092915050565b7f416d6f756e74206d7573742062652067726561746572207468616e2030000000600082015250565b60006118c7601d83611551565b91506118d282611891565b602082019050919050565b600060208201905081810360008301526118f6816118ba565b9050919050565b7f4475652064617465206d75737420626520696e20746865206675747572650000600082015250565b6000611933601e83611551565b915061193e826118fd565b602082019050919050565b6000602082019050818103600083015261196281611926565b9050919050565b600060608201905061197e60008301866113cf565b61198b60208301856113cf565b61199860408301846113c0565b949350505050565b7f436f6e747261637420646f6573206e6f74206861766520656e6f75676820455460008201527f4800000000000000000000000000000000000000000000000000000000000000602082015250565b60006119fc602183611551565b9150611a07826119a0565b604082019050919050565b60006020820190508181036000830152611a2b816119ef565b9050919050565b600081905092915050565b50565b6000611a4d600083611a32565b9150611a5882611a3d565b600082019050919050565b6000611a6e82611a40565b9150819050919050565b7f5472616e73666572206661696c65640000000000000000000000000000000000600082015250565b6000611aae600f83611551565b9150611ab982611a78565b602082019050919050565b60006020820190508181036000830152611add81611aa1565b9050919050565b6000819050919050565b6000611b09611b04611aff84611ae4565b6114d7565b611204565b9050919050565b611b1981611aee565b82525050565b6000608082019050611b3460008301876113c0565b611b416020830186611b10565b611b4e60408301856113c0565b611b5b60608301846113de565b95945050505050565b7f4e6f7420746865206f776e657200000000000000000000000000000000000000600082015250565b6000611b9a600d83611551565b9150611ba582611b64565b602082019050919050565b60006020820190508181036000830152611bc981611b8d565b9050919050565b7f4d7573742073656e642045544820746f206465706f7369742e00000000000000600082015250565b6000611c06601983611551565b9150611c1182611bd0565b602082019050919050565b60006020820190508181036000830152611c3581611bf9565b9050919050565b6000611c4782611204565b9150611c5283611204565b9250817fffffffffffffffffffffffffffffffffffffffffffffffffffffffffffffffff0483118215151615611c8b57611c8a6115fd565b5b828202905092915050565b7f4e487b7100000000000000000000000000000000000000000000000000000000600052601260045260246000fd5b6000611cd082611204565b9150611cdb83611204565b925082611ceb57611cea611c96565b5b82820490509291505056fea264697066735822122066c268c8bdd5bf13c0c55c37c23ca9fa37356a878ad45204c134ab6f11d5013f64736f6c634300080d0033",
  "immutableReferences": {},
  "source": "// SPDX-License-Identifier: MIT\r\npragma solidity ^0.8.13;\r\nimport \"./ILoan.sol\";\r\nimport \"@openzeppelin/contracts/token/ERC20/IERC20.sol\";\r\n\r\ncontract DeFiLoan is ILoan {\r\n    address payable public owner;\r\n    IERC20 public token;\r\n\r\n    mapping(address => Loan[]) public activeLoans;\r\n    mapping(address => Loan[]) public paidLoans;\r\n    \r\n\r\n    event LoanCreated(address indexed borrower, uint amount, uint interest, uint dueDate, bool isRepaid);\r\n    event LoanRepaid(address indexed borrower, uint loanIndex);\r\n    event OwnerAddress(address owner);\r\n\r\n    modifier onlyOwner() {\r\n        require(msg.sender == owner, \"Not the owner\");\r\n        _;\r\n    }\r\n\r\n    constructor(address _tokenAddress) {\r\n        owner = payable(msg.sender); //adresa celui care a creat contractul\r\n        token = IERC20(_tokenAddress);\r\n        emit OwnerAddress(owner);\r\n    }\r\n\r\n    // Adauga un nou imprumut\r\n    function createLoan(uint _amount, uint _dueDate) public payable override {\r\n        require(_amount > 0, \"Amount must be greater than 0\");\r\n        require(_dueDate > block.timestamp, \"Due date must be in the future\");\r\n        require(token.balanceOf(msg.sender) >= _amount, \"Insufficient token balance\");\r\n\r\n        // Transfer token-uri de la mprumutat la contract\r\n        token.transferFrom(msg.sender, address(this), _amount);\r\n\r\n        // Adaug mprumutul n mapping-ul activeLoans\r\n        activeLoans[msg.sender].push(Loan({\r\n            amount: _amount,\r\n            interest: 10,\r\n            dueDate: _dueDate,\r\n            borrower: msg.sender,\r\n            isRepaid: false\r\n        }));\r\n\r\n        // Transfer ETH ctre mprumutat\r\n        require(address(this).balance >= msg.value, \"Contract does not have enough ETH\");\r\n        (bool success, ) = payable(msg.sender).call{value: msg.value}(\"\");\r\n        require(success, \"Transfer failed\");\r\n\r\n        emit LoanCreated(msg.sender, _amount, 10, _dueDate, false);\r\n    }\r\n\r\n    // Obtine imprumuturile active ale unui utilizator\r\n    function getActiveLoans(address _borrower) external view override returns (Loan[] memory) {\r\n        return activeLoans[_borrower];\r\n    }\r\n\r\n    function getPaidLoans(address _borrower) external view returns (Loan[] memory) {\r\n        return paidLoans[_borrower];\r\n    }\r\n\r\n    // Permite rambursarea unui imprumut\r\n    function repayLoan(address _borrower, uint256 _index) public payable override {\r\n        require(_index < activeLoans[_borrower].length, \"Loan does not exist\");\r\n\r\n        Loan storage loan = activeLoans[_borrower][_index];\r\n        uint256 interestAmount = calculateInterest(loan.amount, loan.interest);\r\n        uint256 totalRepayment = loan.amount + interestAmount;\r\n\r\n        require(token.balanceOf(msg.sender) >= totalRepayment, \"Insufficient token balance\");\r\n        require(token.allowance(msg.sender, address(this)) >= totalRepayment, \"Token allowance too low\");\r\n\r\n        token.transferFrom(msg.sender, owner, totalRepayment);\r\n\r\n        loan.isRepaid = true;\r\n        paidLoans[_borrower].push(loan);\r\n\r\n        emit LoanRepaid(_borrower, _index);\r\n    }\r\n\r\n    function depositFunds() external payable onlyOwner {\r\n        require(msg.value > 0, \"Must send ETH to deposit.\");\r\n    }\r\n\r\n    function getContractBalance() public view returns (uint) {\r\n        return address(this).balance;\r\n    }\r\n\r\n    function getBorrowerBalance(address _borrower) public view returns (uint) {\r\n        return _borrower.balance;\r\n    }\r\n\r\n    function calculateInterest(uint256 _amount, uint256 _interest) public pure returns (uint256) {\r\n        return (_amount * _interest) / 100;\r\n    }\r\n}",
  "sourcePath": "C:\\Users\\sumur\\Desktop\\An3\\Sistem-de-Imprumuturi-DeFi\\contracts\\DeFiLoan.sol",
  "compiler": {
    "name": "solc",
    "version": "0.8.13+commit.abaa5c0e.Emscripten.clang"
  },
  "schemaVersion": "3.4.16",
  "updatedAt": "2025-04-07T04:20:05.773Z",
  "devdoc": {
    "kind": "dev",
    "methods": {},
    "version": 1
  },
  "userdoc": {
    "kind": "user",
    "methods": {},
    "version": 1
  }
}