{
  "contractName": "LendingAndLoaning",
  "abi": [
    {
      "inputs": [],
      "stateMutability": "nonpayable",
      "type": "constructor"
    },
    {
      "anonymous": false,
      "inputs": [
        {
          "indexed": false,
          "internalType": "string",
          "name": "message",
          "type": "string"
        },
        {
          "indexed": false,
          "internalType": "uint256",
          "name": "value",
          "type": "uint256"
        }
      ],
      "name": "Debug",
      "type": "event"
    },
    {
      "anonymous": false,
      "inputs": [
        {
          "indexed": false,
          "internalType": "string",
          "name": "message",
          "type": "string"
        },
        {
          "indexed": false,
          "internalType": "address",
          "name": "addr",
          "type": "address"
        }
      ],
      "name": "DebugAddress",
      "type": "event"
    },
    {
      "anonymous": false,
      "inputs": [
        {
          "indexed": false,
          "internalType": "address",
          "name": "sender",
          "type": "address"
        },
        {
          "indexed": false,
          "internalType": "uint256",
          "name": "amountInDollars",
          "type": "uint256"
        },
        {
          "indexed": false,
          "internalType": "uint256",
          "name": "totalAmountAvailableForLendInDollars",
          "type": "uint256"
        },
        {
          "indexed": false,
          "internalType": "bool",
          "name": "userPresent",
          "type": "bool"
        },
        {
          "indexed": false,
          "internalType": "int256",
          "name": "userIndex",
          "type": "int256"
        },
        {
          "indexed": false,
          "internalType": "address[]",
          "name": "lenders",
          "type": "address[]"
        },
        {
          "indexed": false,
          "internalType": "uint256",
          "name": "currentUserEthLentAmount",
          "type": "uint256"
        }
      ],
      "name": "Lend",
      "type": "event"
    },
    {
      "anonymous": false,
      "inputs": [
        {
          "indexed": false,
          "internalType": "uint256",
          "name": "index",
          "type": "uint256"
        },
        {
          "indexed": false,
          "internalType": "address",
          "name": "sender",
          "type": "address"
        },
        {
          "indexed": false,
          "internalType": "uint256",
          "name": "amount",
          "type": "uint256"
        },
        {
          "indexed": false,
          "internalType": "uint256",
          "name": "interest",
          "type": "uint256"
        },
        {
          "indexed": false,
          "internalType": "uint256",
          "name": "dueDate",
          "type": "uint256"
        }
      ],
      "name": "LoanMade",
      "type": "event"
    },
    {
      "anonymous": false,
      "inputs": [
        {
          "indexed": true,
          "internalType": "address",
          "name": "previousOwner",
          "type": "address"
        },
        {
          "indexed": true,
          "internalType": "address",
          "name": "newOwner",
          "type": "address"
        }
      ],
      "name": "OwnershipTransferred",
      "type": "event"
    },
    {
      "anonymous": false,
      "inputs": [
        {
          "indexed": false,
          "internalType": "address",
          "name": "_from",
          "type": "address"
        },
        {
          "indexed": false,
          "internalType": "address",
          "name": "_to",
          "type": "address"
        },
        {
          "indexed": false,
          "internalType": "uint256",
          "name": "_index",
          "type": "uint256"
        }
      ],
      "name": "PayLoan",
      "type": "event"
    },
    {
      "anonymous": false,
      "inputs": [
        {
          "indexed": false,
          "internalType": "address",
          "name": "sender",
          "type": "address"
        },
        {
          "indexed": false,
          "internalType": "uint256",
          "name": "index",
          "type": "uint256"
        },
        {
          "indexed": false,
          "internalType": "uint256",
          "name": "amount",
          "type": "uint256"
        },
        {
          "indexed": false,
          "internalType": "uint256",
          "name": "interest",
          "type": "uint256"
        },
        {
          "indexed": false,
          "internalType": "uint256",
          "name": "dueDate",
          "type": "uint256"
        }
      ],
      "name": "PayLoan",
      "type": "event"
    },
    {
      "anonymous": false,
      "inputs": [],
      "name": "Withdraw",
      "type": "event"
    },
    {
      "inputs": [
        {
          "internalType": "address",
          "name": "",
          "type": "address"
        },
        {
          "internalType": "uint256",
          "name": "",
          "type": "uint256"
        }
      ],
      "name": "activeLoans",
      "outputs": [
        {
          "internalType": "uint256",
          "name": "amount",
          "type": "uint256"
        },
        {
          "internalType": "uint256",
          "name": "interest",
          "type": "uint256"
        },
        {
          "internalType": "uint256",
          "name": "dueDate",
          "type": "uint256"
        },
        {
          "internalType": "address",
          "name": "borrower",
          "type": "address"
        },
        {
          "internalType": "bool",
          "name": "isRepaid",
          "type": "bool"
        },
        {
          "internalType": "bool",
          "name": "approved",
          "type": "bool"
        }
      ],
      "stateMutability": "view",
      "type": "function",
      "constant": true
    },
    {
      "inputs": [
        {
          "internalType": "uint256",
          "name": "",
          "type": "uint256"
        }
      ],
      "name": "borrowers",
      "outputs": [
        {
          "internalType": "address",
          "name": "",
          "type": "address"
        }
      ],
      "stateMutability": "view",
      "type": "function",
      "constant": true
    },
    {
      "inputs": [
        {
          "internalType": "address",
          "name": "",
          "type": "address"
        }
      ],
      "name": "ethBorrowedAmount",
      "outputs": [
        {
          "internalType": "uint256",
          "name": "",
          "type": "uint256"
        }
      ],
      "stateMutability": "view",
      "type": "function",
      "constant": true
    },
    {
      "inputs": [
        {
          "internalType": "address",
          "name": "",
          "type": "address"
        }
      ],
      "name": "ethLentAmount",
      "outputs": [
        {
          "internalType": "uint256",
          "name": "",
          "type": "uint256"
        }
      ],
      "stateMutability": "view",
      "type": "function",
      "constant": true
    },
    {
      "inputs": [
        {
          "internalType": "address",
          "name": "",
          "type": "address"
        }
      ],
      "name": "lendTimestamps",
      "outputs": [
        {
          "internalType": "uint256",
          "name": "",
          "type": "uint256"
        }
      ],
      "stateMutability": "view",
      "type": "function",
      "constant": true
    },
    {
      "inputs": [
        {
          "internalType": "uint256",
          "name": "",
          "type": "uint256"
        }
      ],
      "name": "lenders",
      "outputs": [
        {
          "internalType": "address",
          "name": "",
          "type": "address"
        }
      ],
      "stateMutability": "view",
      "type": "function",
      "constant": true
    },
    {
      "inputs": [],
      "name": "noOfEthBorrowed",
      "outputs": [
        {
          "internalType": "uint256",
          "name": "",
          "type": "uint256"
        }
      ],
      "stateMutability": "view",
      "type": "function",
      "constant": true
    },
    {
      "inputs": [],
      "name": "noOfEthLent",
      "outputs": [
        {
          "internalType": "uint256",
          "name": "",
          "type": "uint256"
        }
      ],
      "stateMutability": "view",
      "type": "function",
      "constant": true
    },
    {
      "inputs": [],
      "name": "owner",
      "outputs": [
        {
          "internalType": "address",
          "name": "",
          "type": "address"
        }
      ],
      "stateMutability": "view",
      "type": "function",
      "constant": true
    },
    {
      "inputs": [
        {
          "internalType": "address",
          "name": "",
          "type": "address"
        },
        {
          "internalType": "uint256",
          "name": "",
          "type": "uint256"
        }
      ],
      "name": "paidLoans",
      "outputs": [
        {
          "internalType": "uint256",
          "name": "amount",
          "type": "uint256"
        },
        {
          "internalType": "uint256",
          "name": "interest",
          "type": "uint256"
        },
        {
          "internalType": "uint256",
          "name": "dueDate",
          "type": "uint256"
        },
        {
          "internalType": "address",
          "name": "borrower",
          "type": "address"
        },
        {
          "internalType": "bool",
          "name": "isRepaid",
          "type": "bool"
        },
        {
          "internalType": "bool",
          "name": "approved",
          "type": "bool"
        }
      ],
      "stateMutability": "view",
      "type": "function",
      "constant": true
    },
    {
      "inputs": [],
      "name": "renounceOwnership",
      "outputs": [],
      "stateMutability": "nonpayable",
      "type": "function"
    },
    {
      "inputs": [],
      "name": "totalEthWon",
      "outputs": [
        {
          "internalType": "uint256",
          "name": "",
          "type": "uint256"
        }
      ],
      "stateMutability": "view",
      "type": "function",
      "constant": true
    },
    {
      "inputs": [
        {
          "internalType": "address",
          "name": "newOwner",
          "type": "address"
        }
      ],
      "name": "transferOwnership",
      "outputs": [],
      "stateMutability": "nonpayable",
      "type": "function"
    },
    {
      "inputs": [
        {
          "internalType": "uint256",
          "name": "_amount",
          "type": "uint256"
        },
        {
          "internalType": "uint256",
          "name": "_interest",
          "type": "uint256"
        }
      ],
      "name": "calculateInterest",
      "outputs": [
        {
          "internalType": "uint256",
          "name": "",
          "type": "uint256"
        }
      ],
      "stateMutability": "pure",
      "type": "function",
      "constant": true
    },
    {
      "inputs": [],
      "name": "getLenders",
      "outputs": [
        {
          "internalType": "address[]",
          "name": "",
          "type": "address[]"
        }
      ],
      "stateMutability": "view",
      "type": "function",
      "constant": true
    },
    {
      "inputs": [],
      "name": "getNoEthLent",
      "outputs": [
        {
          "internalType": "uint256",
          "name": "",
          "type": "uint256"
        }
      ],
      "stateMutability": "view",
      "type": "function",
      "constant": true
    },
    {
      "inputs": [],
      "name": "getBorrowers",
      "outputs": [
        {
          "internalType": "address[]",
          "name": "",
          "type": "address[]"
        }
      ],
      "stateMutability": "view",
      "type": "function",
      "constant": true
    },
    {
      "inputs": [],
      "name": "getMoney",
      "outputs": [
        {
          "internalType": "uint256",
          "name": "",
          "type": "uint256"
        }
      ],
      "stateMutability": "view",
      "type": "function",
      "constant": true
    },
    {
      "inputs": [
        {
          "internalType": "address",
          "name": "_borrower",
          "type": "address"
        }
      ],
      "name": "getActiveLoans",
      "outputs": [
        {
          "components": [
            {
              "internalType": "uint256",
              "name": "amount",
              "type": "uint256"
            },
            {
              "internalType": "uint256",
              "name": "interest",
              "type": "uint256"
            },
            {
              "internalType": "uint256",
              "name": "dueDate",
              "type": "uint256"
            },
            {
              "internalType": "address",
              "name": "borrower",
              "type": "address"
            },
            {
              "internalType": "bool",
              "name": "isRepaid",
              "type": "bool"
            },
            {
              "internalType": "bool",
              "name": "approved",
              "type": "bool"
            }
          ],
          "internalType": "struct LendingAndLoaning.Loan[]",
          "name": "",
          "type": "tuple[]"
        }
      ],
      "stateMutability": "view",
      "type": "function",
      "constant": true
    },
    {
      "inputs": [
        {
          "internalType": "address",
          "name": "_borrower",
          "type": "address"
        }
      ],
      "name": "getPaidLoans",
      "outputs": [
        {
          "components": [
            {
              "internalType": "uint256",
              "name": "amount",
              "type": "uint256"
            },
            {
              "internalType": "uint256",
              "name": "interest",
              "type": "uint256"
            },
            {
              "internalType": "uint256",
              "name": "dueDate",
              "type": "uint256"
            },
            {
              "internalType": "address",
              "name": "borrower",
              "type": "address"
            },
            {
              "internalType": "bool",
              "name": "isRepaid",
              "type": "bool"
            },
            {
              "internalType": "bool",
              "name": "approved",
              "type": "bool"
            }
          ],
          "internalType": "struct LendingAndLoaning.Loan[]",
          "name": "",
          "type": "tuple[]"
        }
      ],
      "stateMutability": "view",
      "type": "function",
      "constant": true
    },
    {
      "inputs": [
        {
          "internalType": "address",
          "name": "_lender",
          "type": "address"
        }
      ],
      "name": "getEthLentAmount",
      "outputs": [
        {
          "internalType": "uint256",
          "name": "",
          "type": "uint256"
        }
      ],
      "stateMutability": "view",
      "type": "function",
      "constant": true
    },
    {
      "inputs": [],
      "name": "withdraw",
      "outputs": [],
      "stateMutability": "nonpayable",
      "type": "function"
    },
    {
      "inputs": [
        {
          "internalType": "address",
          "name": "_borrower",
          "type": "address"
        },
        {
          "internalType": "uint256",
          "name": "_amount",
          "type": "uint256"
        }
      ],
      "name": "lend",
      "outputs": [],
      "stateMutability": "payable",
      "type": "function",
      "payable": true
    },
    {
      "inputs": [
        {
          "internalType": "uint256",
          "name": "_amount",
          "type": "uint256"
        },
        {
          "internalType": "uint256",
          "name": "_dueDate",
          "type": "uint256"
        }
      ],
      "name": "createLoan",
      "outputs": [],
      "stateMutability": "payable",
      "type": "function",
      "payable": true
    },
    {
      "inputs": [
        {
          "internalType": "address",
          "name": "_borrower",
          "type": "address"
        },
        {
          "internalType": "uint256",
          "name": "_index",
          "type": "uint256"
        }
      ],
      "name": "payLoan",
      "outputs": [],
      "stateMutability": "payable",
      "type": "function",
      "payable": true
    }
  ],
  "bytecode": "0x60806040526000600655600060075560006008553480156200002057600080fd5b5062000041620000356200004760201b60201c565b6200004f60201b60201c565b62000113565b600033905090565b60008060009054906101000a900473ffffffffffffffffffffffffffffffffffffffff169050816000806101000a81548173ffffffffffffffffffffffffffffffffffffffff021916908373ffffffffffffffffffffffffffffffffffffffff1602179055508173ffffffffffffffffffffffffffffffffffffffff168173ffffffffffffffffffffffffffffffffffffffff167f8be0079c531659141344cd1fd0a4f28419497f9722a3daafe3b4186f6b6457e060405160405180910390a35050565b612ba480620001236000396000f3fe6080604052600436106101665760003560e01c80638da5cb5b116100d157806399635d5c1161008a578063c8f78ea811610064578063c8f78ea814610558578063cd0d011e14610574578063efdd7c07146105b1578063f2fde38b146105ee57610166565b806399635d5c146104bd578063a2fb342d146104ff578063a73d64851461051b57610166565b80638da5cb5b146103a6578063929eea21146103d157806395bc20ea1461040e578063970967151461043957806398cd90b51461047657806398e1b4101461049257610166565b8063661ca03711610123578063661ca037146102825780636854786a146102bf578063715018a6146102ea5780637924d93f146103015780637e0018a71461033e578063829268751461037b57610166565b806303d1a1a11461016b57806321111063146101a8578063235ed441146101ea5780632fae704a146102155780633ccfd60b146102405780634dda991d14610257575b600080fd5b34801561017757600080fd5b50610192600480360381019061018d9190611e9c565b610617565b60405161019f9190612036565b60405180910390f35b3480156101b457600080fd5b506101cf60048036038101906101ca9190612084565b61075f565b6040516101e1969594939291906120f1565b60405180910390f35b3480156101f657600080fd5b506101ff6107f2565b60405161020c9190612152565b60405180910390f35b34801561022157600080fd5b5061022a6107f8565b6040516102379190612152565b60405180910390f35b34801561024c57600080fd5b50610255610802565b005b34801561026357600080fd5b5061026c610a16565b6040516102799190612152565b60405180910390f35b34801561028e57600080fd5b506102a960048036038101906102a49190611e9c565b610a1c565b6040516102b69190612036565b60405180910390f35b3480156102cb57600080fd5b506102d4610b64565b6040516102e1919061221c565b60405180910390f35b3480156102f657600080fd5b506102ff610bf2565b005b34801561030d57600080fd5b506103286004803603810190610323919061223e565b610c7a565b604051610335919061226b565b60405180910390f35b34801561034a57600080fd5b5061036560048036038101906103609190611e9c565b610cb9565b6040516103729190612152565b60405180910390f35b34801561038757600080fd5b50610390610cd1565b60405161039d919061221c565b60405180910390f35b3480156103b257600080fd5b506103bb610d5f565b6040516103c8919061226b565b60405180910390f35b3480156103dd57600080fd5b506103f860048036038101906103f3919061223e565b610d88565b604051610405919061226b565b60405180910390f35b34801561041a57600080fd5b50610423610dc7565b6040516104309190612152565b60405180910390f35b34801561044557600080fd5b50610460600480360381019061045b9190611e9c565b610dcd565b60405161046d9190612152565b60405180910390f35b610490600480360381019061048b9190612286565b610de5565b005b34801561049e57600080fd5b506104a7611116565b6040516104b49190612152565b60405180910390f35b3480156104c957600080fd5b506104e460048036038101906104df9190612084565b61111e565b6040516104f6969594939291906120f1565b60405180910390f35b61051960048036038101906105149190612084565b6111b1565b005b34801561052757600080fd5b50610542600480360381019061053d9190611e9c565b61151f565b60405161054f9190612152565b60405180910390f35b610572600480360381019061056d9190612084565b611568565b005b34801561058057600080fd5b5061059b60048036038101906105969190611e9c565b611b6a565b6040516105a89190612152565b60405180910390f35b3480156105bd57600080fd5b506105d860048036038101906105d39190612286565b611b82565b6040516105e59190612152565b60405180910390f35b3480156105fa57600080fd5b5061061560048036038101906106109190611e9c565b611ba4565b005b6060600960008373ffffffffffffffffffffffffffffffffffffffff1673ffffffffffffffffffffffffffffffffffffffff168152602001908152602001600020805480602002602001604051908101604052809291908181526020016000905b8282101561075457838290600052602060002090600402016040518060c00160405290816000820154815260200160018201548152602001600282015481526020016003820160009054906101000a900473ffffffffffffffffffffffffffffffffffffffff1673ffffffffffffffffffffffffffffffffffffffff1673ffffffffffffffffffffffffffffffffffffffff1681526020016003820160149054906101000a900460ff161515151581526020016003820160159054906101000a900460ff16151515158152505081526020019060010190610678565b505050509050919050565b6009602052816000526040600020818154811061077b57600080fd5b9060005260206000209060040201600091509150508060000154908060010154908060020154908060030160009054906101000a900473ffffffffffffffffffffffffffffffffffffffff16908060030160149054906101000a900460ff16908060030160159054906101000a900460ff16905086565b60075481565b6000600654905090565b6000600360003373ffffffffffffffffffffffffffffffffffffffff1673ffffffffffffffffffffffffffffffffffffffff16815260200190815260200160002054905060008111610889576040517f08c379a000000000000000000000000000000000000000000000000000000000815260040161088090612323565b60405180910390fd5b7f3c5ad147104e56be34a9176a6692f7df8d2f4b29a5af06bc6b98970d329d6577816040516108b8919061238f565b60405180910390a17fb3f7d6c63a62ab0e6ae5263ef1deb9c5a64f4689288c380db949c116314a5540336040516108ef9190612409565b60405180910390a160008190506000600360003373ffffffffffffffffffffffffffffffffffffffff1673ffffffffffffffffffffffffffffffffffffffff1681526020019081526020016000208190555081600660008282546109539190612466565b925050819055506000600560003373ffffffffffffffffffffffffffffffffffffffff1673ffffffffffffffffffffffffffffffffffffffff168152602001908152602001600020819055503373ffffffffffffffffffffffffffffffffffffffff166108fc829081150290604051600060405180830381858888f193505050501580156109e5573d6000803e3d6000fd5b507f57ea89b6814fccbbe8728fa89cc8e6b5477e559b2a34e946e105b11112e94b5860405160405180910390a15050565b60065481565b6060600a60008373ffffffffffffffffffffffffffffffffffffffff1673ffffffffffffffffffffffffffffffffffffffff168152602001908152602001600020805480602002602001604051908101604052809291908181526020016000905b82821015610b5957838290600052602060002090600402016040518060c00160405290816000820154815260200160018201548152602001600282015481526020016003820160009054906101000a900473ffffffffffffffffffffffffffffffffffffffff1673ffffffffffffffffffffffffffffffffffffffff1673ffffffffffffffffffffffffffffffffffffffff1681526020016003820160149054906101000a900460ff161515151581526020016003820160159054906101000a900460ff16151515158152505081526020019060010190610a7d565b505050509050919050565b60606001805480602002602001604051908101604052809291908181526020018280548015610be857602002820191906000526020600020905b8160009054906101000a900473ffffffffffffffffffffffffffffffffffffffff1673ffffffffffffffffffffffffffffffffffffffff1681526020019060010190808311610b9e575b5050505050905090565b610bfa611c9b565b73ffffffffffffffffffffffffffffffffffffffff16610c18610d5f565b73ffffffffffffffffffffffffffffffffffffffff1614610c6e576040517f08c379a0000000000000000000000000000000000000000000000000000000008152600401610c65906124e6565b60405180910390fd5b610c786000611ca3565b565b60018181548110610c8a57600080fd5b906000526020600020016000915054906101000a900473ffffffffffffffffffffffffffffffffffffffff1681565b60046020528060005260406000206000915090505481565b60606002805480602002602001604051908101604052809291908181526020018280548015610d5557602002820191906000526020600020905b8160009054906101000a900473ffffffffffffffffffffffffffffffffffffffff1673ffffffffffffffffffffffffffffffffffffffff1681526020019060010190808311610d0b575b5050505050905090565b60008060009054906101000a900473ffffffffffffffffffffffffffffffffffffffff16905090565b60028181548110610d9857600080fd5b906000526020600020016000915054906101000a900473ffffffffffffffffffffffffffffffffffffffff1681565b60085481565b60056020528060005260406000206000915090505481565b60008211610e28576040517f08c379a0000000000000000000000000000000000000000000000000000000008152600401610e1f90612552565b60405180910390fd5b816006541015610e6d576040517f08c379a0000000000000000000000000000000000000000000000000000000008152600401610e64906125e4565b60405180910390fd5b600080610e7b336001611d67565b91509150600960003373ffffffffffffffffffffffffffffffffffffffff1673ffffffffffffffffffffffffffffffffffffffff1681526020019081526020016000206040518060c00160405280868152602001600a81526020018581526020013373ffffffffffffffffffffffffffffffffffffffff16815260200160001515815260200160001515815250908060018154018082558091505060019003906000526020600020906004020160009091909190915060008201518160000155602082015181600101556040820151816002015560608201518160030160006101000a81548173ffffffffffffffffffffffffffffffffffffffff021916908373ffffffffffffffffffffffffffffffffffffffff16021790555060808201518160030160146101000a81548160ff02191690831515021790555060a08201518160030160156101000a81548160ff021916908315150217905550505081611041576001339080600181540180825580915050600190039060005260206000200160009091909190916101000a81548173ffffffffffffffffffffffffffffffffffffffff021916908373ffffffffffffffffffffffffffffffffffffffff1602179055505b83600460003373ffffffffffffffffffffffffffffffffffffffff1673ffffffffffffffffffffffffffffffffffffffff16815260200190815260200160002060008282546110909190612604565b9250508190555083600760008282546110a99190612604565b9250508190555083600660008282546110c29190612466565b925050819055503373ffffffffffffffffffffffffffffffffffffffff166108fc859081150290604051600060405180830381858888f1935050505015801561110f573d6000803e3d6000fd5b5050505050565b600047905090565b600a602052816000526040600020818154811061113a57600080fd5b9060005260206000209060040201600091509150508060000154908060010154908060020154908060030160009054906101000a900473ffffffffffffffffffffffffffffffffffffffff16908060030160149054906101000a900460ff16908060030160159054906101000a900460ff16905086565b8034146111f3576040517f08c379a00000000000000000000000000000000000000000000000000000000081526004016111ea906126cc565b60405180910390fd5b3373ffffffffffffffffffffffffffffffffffffffff163181111561124d576040517f08c379a000000000000000000000000000000000000000000000000000000000815260040161124490612738565b60405180910390fd5b60008061125b846001611d67565b91509150811561135e5782600360003373ffffffffffffffffffffffffffffffffffffffff1673ffffffffffffffffffffffffffffffffffffffff16815260200190815260200160002060008282546112b49190612604565b9250508190555082600660008282546112cd9190612604565b925050819055507f2aa429260dac0e7f8aedd8dff9450eca76935cf8acb86253a57f79f88d7cf4d3338460065485856002600360003373ffffffffffffffffffffffffffffffffffffffff1673ffffffffffffffffffffffffffffffffffffffff16815260200190815260200160002054604051611351979695949392919061285d565b60405180910390a1611519565b6001849080600181540180825580915050600190039060005260206000200160009091909190916101000a81548173ffffffffffffffffffffffffffffffffffffffff021916908373ffffffffffffffffffffffffffffffffffffffff1602179055506002339080600181540180825580915050600190039060005260206000200160009091909190916101000a81548173ffffffffffffffffffffffffffffffffffffffff021916908373ffffffffffffffffffffffffffffffffffffffff16021790555082600360003373ffffffffffffffffffffffffffffffffffffffff1673ffffffffffffffffffffffffffffffffffffffff16815260200190815260200160002060008282546114739190612604565b92505081905550826006600082825461148c9190612604565b925050819055507f2aa429260dac0e7f8aedd8dff9450eca76935cf8acb86253a57f79f88d7cf4d3338460065485856002600360003373ffffffffffffffffffffffffffffffffffffffff1673ffffffffffffffffffffffffffffffffffffffff16815260200190815260200160002054604051611510979695949392919061285d565b60405180910390a15b50505050565b6000600360008373ffffffffffffffffffffffffffffffffffffffff1673ffffffffffffffffffffffffffffffffffffffff168152602001908152602001600020549050919050565b600960008373ffffffffffffffffffffffffffffffffffffffff1673ffffffffffffffffffffffffffffffffffffffff1681526020019081526020016000208054905081106115ec576040517f08c379a00000000000000000000000000000000000000000000000000000000081526004016115e39061291f565b60405180910390fd5b60001515600960008473ffffffffffffffffffffffffffffffffffffffff1673ffffffffffffffffffffffffffffffffffffffff16815260200190815260200160002082815481106116415761164061293f565b5b906000526020600020906004020160030160149054906101000a900460ff161515146116a2576040517f08c379a0000000000000000000000000000000000000000000000000000000008152600401611699906129ba565b60405180910390fd5b6000611772600960008573ffffffffffffffffffffffffffffffffffffffff1673ffffffffffffffffffffffffffffffffffffffff16815260200190815260200160002083815481106116f8576116f761293f565b5b906000526020600020906004020160000154600960008673ffffffffffffffffffffffffffffffffffffffff1673ffffffffffffffffffffffffffffffffffffffff168152602001908152602001600020848154811061175b5761175a61293f565b5b906000526020600020906004020160010154611b82565b600960008573ffffffffffffffffffffffffffffffffffffffff1673ffffffffffffffffffffffffffffffffffffffff16815260200190815260200160002083815481106117c3576117c261293f565b5b9060005260206000209060040201600001546117df9190612604565b90506001600960008573ffffffffffffffffffffffffffffffffffffffff1673ffffffffffffffffffffffffffffffffffffffff16815260200190815260200160002083815481106118345761183361293f565b5b906000526020600020906004020160030160146101000a81548160ff021916908315150217905550600a60008473ffffffffffffffffffffffffffffffffffffffff1673ffffffffffffffffffffffffffffffffffffffff168152602001908152602001600020600960008573ffffffffffffffffffffffffffffffffffffffff1673ffffffffffffffffffffffffffffffffffffffff16815260200190815260200160002083815481106118ec576118eb61293f565b5b906000526020600020906004020190806001815401808255809150506001900390600052602060002090600402016000909190919091506000820154816000015560018201548160010155600282015481600201556003820160009054906101000a900473ffffffffffffffffffffffffffffffffffffffff168160030160006101000a81548173ffffffffffffffffffffffffffffffffffffffff021916908373ffffffffffffffffffffffffffffffffffffffff1602179055506003820160149054906101000a900460ff168160030160146101000a81548160ff0219169083151502179055506003820160159054906101000a900460ff168160030160156101000a81548160ff0219169083151502179055505050600960008473ffffffffffffffffffffffffffffffffffffffff1673ffffffffffffffffffffffffffffffffffffffff1681526020019081526020016000208281548110611a5557611a5461293f565b5b90600052602060002090600402016000015460066000828254611a789190612604565b92505081905550611b4d600960008573ffffffffffffffffffffffffffffffffffffffff1673ffffffffffffffffffffffffffffffffffffffff1681526020019081526020016000208381548110611ad357611ad261293f565b5b906000526020600020906004020160000154600960008673ffffffffffffffffffffffffffffffffffffffff1673ffffffffffffffffffffffffffffffffffffffff1681526020019081526020016000208481548110611b3657611b3561293f565b5b906000526020600020906004020160010154611b82565b60086000828254611b5e9190612604565b92505081905550505050565b60036020528060005260406000206000915090505481565b600060648284611b9291906129da565b611b9c9190612a63565b905092915050565b611bac611c9b565b73ffffffffffffffffffffffffffffffffffffffff16611bca610d5f565b73ffffffffffffffffffffffffffffffffffffffff1614611c20576040517f08c379a0000000000000000000000000000000000000000000000000000000008152600401611c17906124e6565b60405180910390fd5b600073ffffffffffffffffffffffffffffffffffffffff168173ffffffffffffffffffffffffffffffffffffffff1603611c8f576040517f08c379a0000000000000000000000000000000000000000000000000000000008152600401611c8690612b06565b60405180910390fd5b611c9881611ca3565b50565b600033905090565b60008060009054906101000a900473ffffffffffffffffffffffffffffffffffffffff169050816000806101000a81548173ffffffffffffffffffffffffffffffffffffffff021916908373ffffffffffffffffffffffffffffffffffffffff1602179055508173ffffffffffffffffffffffffffffffffffffffff168173ffffffffffffffffffffffffffffffffffffffff167f8be0079c531659141344cd1fd0a4f28419497f9722a3daafe3b4186f6b6457e060405160405180910390a35050565b60008060005b8380549050811015611e09578473ffffffffffffffffffffffffffffffffffffffff16848281548110611da357611da261293f565b5b9060005260206000200160009054906101000a900473ffffffffffffffffffffffffffffffffffffffff1673ffffffffffffffffffffffffffffffffffffffff1603611df6576001819250925050611e32565b8080611e0190612b26565b915050611d6d565b5060007fffffffffffffffffffffffffffffffffffffffffffffffffffffffffffffffff915091505b9250929050565b600080fd5b600073ffffffffffffffffffffffffffffffffffffffff82169050919050565b6000611e6982611e3e565b9050919050565b611e7981611e5e565b8114611e8457600080fd5b50565b600081359050611e9681611e70565b92915050565b600060208284031215611eb257611eb1611e39565b5b6000611ec084828501611e87565b91505092915050565b600081519050919050565b600082825260208201905092915050565b6000819050602082019050919050565b6000819050919050565b611f0881611ef5565b82525050565b611f1781611e5e565b82525050565b60008115159050919050565b611f3281611f1d565b82525050565b60c082016000820151611f4e6000850182611eff565b506020820151611f616020850182611eff565b506040820151611f746040850182611eff565b506060820151611f876060850182611f0e565b506080820151611f9a6080850182611f29565b5060a0820151611fad60a0850182611f29565b50505050565b6000611fbf8383611f38565b60c08301905092915050565b6000602082019050919050565b6000611fe382611ec9565b611fed8185611ed4565b9350611ff883611ee5565b8060005b838110156120295781516120108882611fb3565b975061201b83611fcb565b925050600181019050611ffc565b5085935050505092915050565b600060208201905081810360008301526120508184611fd8565b905092915050565b61206181611ef5565b811461206c57600080fd5b50565b60008135905061207e81612058565b92915050565b6000806040838503121561209b5761209a611e39565b5b60006120a985828601611e87565b92505060206120ba8582860161206f565b9150509250929050565b6120cd81611ef5565b82525050565b6120dc81611e5e565b82525050565b6120eb81611f1d565b82525050565b600060c08201905061210660008301896120c4565b61211360208301886120c4565b61212060408301876120c4565b61212d60608301866120d3565b61213a60808301856120e2565b61214760a08301846120e2565b979650505050505050565b600060208201905061216760008301846120c4565b92915050565b600081519050919050565b600082825260208201905092915050565b6000819050602082019050919050565b60006121a58383611f0e565b60208301905092915050565b6000602082019050919050565b60006121c98261216d565b6121d38185612178565b93506121de83612189565b8060005b8381101561220f5781516121f68882612199565b9750612201836121b1565b9250506001810190506121e2565b5085935050505092915050565b6000602082019050818103600083015261223681846121be565b905092915050565b60006020828403121561225457612253611e39565b5b60006122628482850161206f565b91505092915050565b600060208201905061228060008301846120d3565b92915050565b6000806040838503121561229d5761229c611e39565b5b60006122ab8582860161206f565b92505060206122bc8582860161206f565b9150509250929050565b600082825260208201905092915050565b7f4e6f7468696e6720746f20776974686472617700000000000000000000000000600082015250565b600061230d6013836122c6565b9150612318826122d7565b602082019050919050565b6000602082019050818103600083015261233c81612300565b9050919050565b7f57697468647261772066756e6374696f6e2063616c6c65640000000000000000600082015250565b60006123796018836122c6565b915061238482612343565b602082019050919050565b600060408201905081810360008301526123a88161236c565b90506123b760208301846120c4565b92915050565b7f5769746864726177206164647265737300000000000000000000000000000000600082015250565b60006123f36010836122c6565b91506123fe826123bd565b602082019050919050565b60006040820190508181036000830152612422816123e6565b905061243160208301846120d3565b92915050565b7f4e487b7100000000000000000000000000000000000000000000000000000000600052601160045260246000fd5b600061247182611ef5565b915061247c83611ef5565b92508282101561248f5761248e612437565b5b828203905092915050565b7f4f776e61626c653a2063616c6c6572206973206e6f7420746865206f776e6572600082015250565b60006124d06020836122c6565b91506124db8261249a565b602082019050919050565b600060208201905081810360008301526124ff816124c3565b9050919050565b7f496e76616c6964206c6f616e20616d6f756e7400000000000000000000000000600082015250565b600061253c6013836122c6565b915061254782612506565b602082019050919050565b6000602082019050818103600083015261256b8161252f565b9050919050565b7f4e6f7420656e6f7567682045544820617661696c61626c6520666f72206c656e60008201527f64696e6700000000000000000000000000000000000000000000000000000000602082015250565b60006125ce6024836122c6565b91506125d982612572565b604082019050919050565b600060208201905081810360008301526125fd816125c1565b9050919050565b600061260f82611ef5565b915061261a83611ef5565b9250827fffffffffffffffffffffffffffffffffffffffffffffffffffffffffffffffff0382111561264f5761264e612437565b5b828201905092915050565b7f53656e742045544820616d6f756e7420646f6573206e6f74206d61746368207460008201527f6865206c656e6420616d6f756e74000000000000000000000000000000000000602082015250565b60006126b6602e836122c6565b91506126c18261265a565b604082019050919050565b600060208201905081810360008301526126e5816126a9565b9050919050565b7f4e6f7420656e6f7567682062616c616e636520746f206c656e64000000000000600082015250565b6000612722601a836122c6565b915061272d826126ec565b602082019050919050565b6000602082019050818103600083015261275181612715565b9050919050565b6000819050919050565b61276b81612758565b82525050565b600081549050919050565b60008190508160005260206000209050919050565b60008160001c9050919050565b600073ffffffffffffffffffffffffffffffffffffffff82169050919050565b60006127d16127cc83612791565b61279e565b9050919050565b60006127e482546127be565b9050919050565b6000600182019050919050565b600061280382612771565b61280d8185612178565b93506128188361277c565b8060005b838110156128505761282d826127d8565b6128378882612199565b9750612842836127eb565b92505060018101905061281c565b5085935050505092915050565b600060e082019050612872600083018a6120d3565b61287f60208301896120c4565b61288c60408301886120c4565b61289960608301876120e2565b6128a66080830186612762565b81810360a08301526128b881856127f8565b90506128c760c08301846120c4565b98975050505050505050565b7f496e76616c696420696e64657800000000000000000000000000000000000000600082015250565b6000612909600d836122c6565b9150612914826128d3565b602082019050919050565b60006020820190508181036000830152612938816128fc565b9050919050565b7f4e487b7100000000000000000000000000000000000000000000000000000000600052603260045260246000fd5b7f4c6f616e20616c72656164792072657061696400000000000000000000000000600082015250565b60006129a46013836122c6565b91506129af8261296e565b602082019050919050565b600060208201905081810360008301526129d381612997565b9050919050565b60006129e582611ef5565b91506129f083611ef5565b9250817fffffffffffffffffffffffffffffffffffffffffffffffffffffffffffffffff0483118215151615612a2957612a28612437565b5b828202905092915050565b7f4e487b7100000000000000000000000000000000000000000000000000000000600052601260045260246000fd5b6000612a6e82611ef5565b9150612a7983611ef5565b925082612a8957612a88612a34565b5b828204905092915050565b7f4f776e61626c653a206e6577206f776e657220697320746865207a65726f206160008201527f6464726573730000000000000000000000000000000000000000000000000000602082015250565b6000612af06026836122c6565b9150612afb82612a94565b604082019050919050565b60006020820190508181036000830152612b1f81612ae3565b9050919050565b6000612b3182611ef5565b91507fffffffffffffffffffffffffffffffffffffffffffffffffffffffffffffffff8203612b6357612b62612437565b5b60018201905091905056fea264697066735822122028e09c053c9f571957b36130376b1e14321b263f26164acccdbbfe348a91382064736f6c634300080d0033",
  "immutableReferences": {},
  "source": "// SPDX-License-Identifier: MIT\r\npragma solidity ^0.8.13;\r\n\r\nimport \"./helper.sol\";\r\nimport \"@openzeppelin/contracts/access/Ownable.sol\";\r\n\r\ncontract LendingAndLoaning is Ownable {\r\n    address[] public borrowers;\r\n    address[] public lenders;\r\n\r\n    mapping(address => uint256) public ethLentAmount;\r\n    mapping(address => uint256) public ethBorrowedAmount;\r\n    mapping(address => uint256) public lendTimestamps;\r\n\r\n    event Withdraw();\r\n    event PayLoan(address _from, address _to, uint256 _index);\r\n\r\n\r\n    event Lend(\r\n        address sender,\r\n        uint256 amountInDollars,\r\n        uint256 totalAmountAvailableForLendInDollars,\r\n        bool userPresent,\r\n        int256 userIndex,\r\n        address[] lenders,\r\n        uint256 currentUserEthLentAmount\r\n    );\r\n\r\n    //event ApproveLoan(address sender, uint256 index, uint256 amount, uint256 interest, uint256 dueDate);\r\n   // event RejectLoan(address sender, uint256 index, uint256 amount, uint256 interest, uint256 dueDate);\r\n    event PayLoan(address sender, uint256 index, uint256 amount, uint256 interest, uint256 dueDate);\r\n\r\n    event LoanMade(uint256 index,address sender, uint256 amount, uint256 interest, uint256 dueDate);\r\n    event Debug(string message, uint256 value);\r\n    event DebugAddress(string message, address addr);\r\n\r\n    uint256 public noOfEthLent = 0;\r\n    uint256 public noOfEthBorrowed = 0;\r\n    uint256 public totalEthWon = 0;\r\n\r\n    struct Loan {\r\n        uint256 amount;\r\n        uint256 interest;\r\n        uint256 dueDate;\r\n        address borrower;\r\n        bool isRepaid;\r\n        bool approved;\r\n    }\r\n\r\n    //mapping(address => Loan[]) public requestedLoans;\r\n    mapping(address => Loan[]) public activeLoans;\r\n    mapping(address => Loan[]) public paidLoans;\r\n\r\n    constructor() {}\r\n\r\n\r\n    function calculateInterest(uint256 _amount, uint256 _interest) public pure returns (uint256) {\r\n        return (_amount * _interest) / 100;\r\n    }\r\n\r\n    function getLenders() public view returns (address[] memory) {\r\n        return lenders;\r\n    }\r\n\r\n    function getNoEthLent() public view returns (uint256) {\r\n        return noOfEthLent;\r\n    }\r\n\r\n    function getBorrowers() public view returns (address[] memory) {\r\n        return borrowers;\r\n    }\r\n\r\n    function getMoney() public view returns (uint256) {\r\n        return address(this).balance;\r\n    }\r\n\r\n    // function getRequestedLoans(address _borrower) public view returns (Loan[] memory) {\r\n    //     return requestedLoans[_borrower];\r\n    // }\r\n\r\n    function getActiveLoans(address _borrower) public view returns (Loan[] memory) {\r\n        return activeLoans[_borrower];\r\n    }\r\n\r\n    function getPaidLoans(address _borrower) public view returns (Loan[] memory) {\r\n        return paidLoans[_borrower];\r\n    }\r\n\r\n    function getEthLentAmount(address _lender) public view returns (uint256) {\r\n        return ethLentAmount[_lender];\r\n    }\r\n\r\n     function withdraw() public {\r\n    uint256 value = ethLentAmount[msg.sender];\r\n    require(value > 0, \"Nothing to withdraw\");\r\n\r\n\r\n    emit Debug(\"Withdraw function called\", value);\r\n    emit DebugAddress(\"Withdraw address\", msg.sender);\r\n\r\n    uint256 toTransfer = value;\r\n    \r\n    \r\n\r\n    \r\n    ethLentAmount[msg.sender] = 0;\r\n    noOfEthLent -= value;\r\n    lendTimestamps[msg.sender] = 0;\r\n\r\n    payable(msg.sender).transfer(toTransfer);\r\n    emit Withdraw();\r\n}\r\n\r\n    function lend(address _borrower, uint256 _amount) public payable {\r\n    require(msg.value == _amount, \"Sent ETH amount does not match the lend amount\");\r\n    require(_amount <= address(msg.sender).balance, \"Not enough balance to lend\");\r\n\r\n    (bool userPresent, int256 userIndex) = helper.isUserIn(_borrower, borrowers);\r\n    if (userPresent) {\r\n        ethLentAmount[msg.sender] += _amount;\r\n        noOfEthLent += _amount;\r\n        emit Lend(\r\n            msg.sender,\r\n            _amount,\r\n            noOfEthLent,\r\n            userPresent,\r\n            userIndex,\r\n            lenders,\r\n            ethLentAmount[msg.sender] // corectat pentru lender\r\n        );\r\n    } else {\r\n        borrowers.push(_borrower);\r\n        lenders.push(msg.sender); // adugai lender n lista\r\n        ethLentAmount[msg.sender] += _amount;\r\n        noOfEthLent += _amount;\r\n        emit Lend(\r\n            msg.sender,\r\n            _amount,\r\n            noOfEthLent,\r\n            userPresent,\r\n            userIndex,\r\n            lenders,\r\n            ethLentAmount[msg.sender] // corectat pentru lender\r\n        );\r\n    }\r\n}\r\n\r\n    function createLoan(uint256 _amount,  uint _dueDate) public payable  {\r\n        require(_amount > 0, \"Invalid loan amount\");\r\n        require(noOfEthLent >= _amount, \"Not enough ETH available for lending\");\r\n\r\n        (bool userPresent, int256 userIndex) = helper.isUserIn(msg.sender, borrowers);\r\n        userIndex = userIndex;\r\n         activeLoans[msg.sender].push(Loan(_amount, 10, _dueDate, msg.sender, false, false));\r\n        if (!userPresent) {\r\n            borrowers.push(msg.sender);\r\n        }\r\n        \r\n        ethBorrowedAmount[msg.sender] += _amount;\r\n        noOfEthBorrowed += _amount;\r\n        noOfEthLent -= _amount;\r\n        \r\n        payable(msg.sender).transfer(_amount);\r\n    }\r\n\r\n    function payLoan(address _borrower, uint256 _index) public payable {\r\n    require(_index < activeLoans[_borrower].length, \"Invalid index\");\r\n    require(activeLoans[_borrower][_index].isRepaid == false, \"Loan already repaid\");\r\n\r\n    uint256 amountToPay = activeLoans[_borrower][_index].amount + calculateInterest(activeLoans[_borrower][_index].amount, activeLoans[_borrower][_index].interest);\r\n\r\n    \r\n    activeLoans[_borrower][_index].isRepaid = true;\r\n    paidLoans[_borrower].push(activeLoans[_borrower][_index]);\r\n\r\n    noOfEthLent += activeLoans[_borrower][_index].amount;\r\n    totalEthWon += calculateInterest(activeLoans[_borrower][_index].amount, activeLoans[_borrower][_index].interest);\r\n}\r\n}",
  "sourcePath": "C:\\Users\\sumur\\Desktop\\An3\\TSS\\contracts\\LendingAndLoaning.sol",
  "compiler": {
    "name": "solc",
    "version": "0.8.13+commit.abaa5c0e.Emscripten.clang"
  },
  "schemaVersion": "3.4.16",
  "updatedAt": "2025-05-16T16:23:59.275Z",
  "networkType": "ethereum",
  "devdoc": {
    "kind": "dev",
    "methods": {
      "owner()": {
        "details": "Returns the address of the current owner."
      },
      "renounceOwnership()": {
        "details": "Leaves the contract without owner. It will not be possible to call `onlyOwner` functions anymore. Can only be called by the current owner. NOTE: Renouncing ownership will leave the contract without an owner, thereby removing any functionality that is only available to the owner."
      },
      "transferOwnership(address)": {
        "details": "Transfers ownership of the contract to a new account (`newOwner`). Can only be called by the current owner."
      }
    },
    "version": 1
  },
  "userdoc": {
    "kind": "user",
    "methods": {},
    "version": 1
  }
}