{
  "contractName": "LendingAndLoaning",
  "abi": [
    {
      "inputs": [],
      "stateMutability": "nonpayable",
      "type": "constructor"
    },
    {
      "anonymous": false,
      "inputs": [
        {
          "indexed": false,
          "internalType": "string",
          "name": "message",
          "type": "string"
        },
        {
          "indexed": false,
          "internalType": "uint256",
          "name": "value",
          "type": "uint256"
        }
      ],
      "name": "Debug",
      "type": "event"
    },
    {
      "anonymous": false,
      "inputs": [
        {
          "indexed": false,
          "internalType": "string",
          "name": "message",
          "type": "string"
        },
        {
          "indexed": false,
          "internalType": "address",
          "name": "addr",
          "type": "address"
        }
      ],
      "name": "DebugAddress",
      "type": "event"
    },
    {
      "anonymous": false,
      "inputs": [
        {
          "indexed": false,
          "internalType": "address",
          "name": "sender",
          "type": "address"
        },
        {
          "indexed": false,
          "internalType": "uint256",
          "name": "amountInDollars",
          "type": "uint256"
        },
        {
          "indexed": false,
          "internalType": "uint256",
          "name": "totalAmountAvailableForLendInDollars",
          "type": "uint256"
        },
        {
          "indexed": false,
          "internalType": "bool",
          "name": "userPresent",
          "type": "bool"
        },
        {
          "indexed": false,
          "internalType": "int256",
          "name": "userIndex",
          "type": "int256"
        },
        {
          "indexed": false,
          "internalType": "address[]",
          "name": "lenders",
          "type": "address[]"
        },
        {
          "indexed": false,
          "internalType": "uint256",
          "name": "currentUserEthLentAmount",
          "type": "uint256"
        }
      ],
      "name": "Lend",
      "type": "event"
    },
    {
      "anonymous": false,
      "inputs": [
        {
          "indexed": false,
          "internalType": "uint256",
          "name": "index",
          "type": "uint256"
        },
        {
          "indexed": false,
          "internalType": "address",
          "name": "sender",
          "type": "address"
        },
        {
          "indexed": false,
          "internalType": "uint256",
          "name": "amount",
          "type": "uint256"
        },
        {
          "indexed": false,
          "internalType": "uint256",
          "name": "interest",
          "type": "uint256"
        },
        {
          "indexed": false,
          "internalType": "uint256",
          "name": "dueDate",
          "type": "uint256"
        }
      ],
      "name": "LoanMade",
      "type": "event"
    },
    {
      "anonymous": false,
      "inputs": [
        {
          "indexed": true,
          "internalType": "address",
          "name": "previousOwner",
          "type": "address"
        },
        {
          "indexed": true,
          "internalType": "address",
          "name": "newOwner",
          "type": "address"
        }
      ],
      "name": "OwnershipTransferred",
      "type": "event"
    },
    {
      "anonymous": false,
      "inputs": [
        {
          "indexed": false,
          "internalType": "address",
          "name": "_from",
          "type": "address"
        },
        {
          "indexed": false,
          "internalType": "address",
          "name": "_to",
          "type": "address"
        },
        {
          "indexed": false,
          "internalType": "uint256",
          "name": "_index",
          "type": "uint256"
        }
      ],
      "name": "PayLoan",
      "type": "event"
    },
    {
      "anonymous": false,
      "inputs": [
        {
          "indexed": false,
          "internalType": "address",
          "name": "sender",
          "type": "address"
        },
        {
          "indexed": false,
          "internalType": "uint256",
          "name": "index",
          "type": "uint256"
        },
        {
          "indexed": false,
          "internalType": "uint256",
          "name": "amount",
          "type": "uint256"
        },
        {
          "indexed": false,
          "internalType": "uint256",
          "name": "interest",
          "type": "uint256"
        },
        {
          "indexed": false,
          "internalType": "uint256",
          "name": "dueDate",
          "type": "uint256"
        }
      ],
      "name": "PayLoan",
      "type": "event"
    },
    {
      "anonymous": false,
      "inputs": [],
      "name": "Withdraw",
      "type": "event"
    },
    {
      "inputs": [
        {
          "internalType": "address",
          "name": "",
          "type": "address"
        },
        {
          "internalType": "uint256",
          "name": "",
          "type": "uint256"
        }
      ],
      "name": "activeLoans",
      "outputs": [
        {
          "internalType": "uint256",
          "name": "amount",
          "type": "uint256"
        },
        {
          "internalType": "uint256",
          "name": "interest",
          "type": "uint256"
        },
        {
          "internalType": "uint256",
          "name": "dueDate",
          "type": "uint256"
        },
        {
          "internalType": "address",
          "name": "borrower",
          "type": "address"
        },
        {
          "internalType": "bool",
          "name": "isRepaid",
          "type": "bool"
        },
        {
          "internalType": "bool",
          "name": "approved",
          "type": "bool"
        }
      ],
      "stateMutability": "view",
      "type": "function",
      "constant": true
    },
    {
      "inputs": [
        {
          "internalType": "uint256",
          "name": "",
          "type": "uint256"
        }
      ],
      "name": "borrowers",
      "outputs": [
        {
          "internalType": "address",
          "name": "",
          "type": "address"
        }
      ],
      "stateMutability": "view",
      "type": "function",
      "constant": true
    },
    {
      "inputs": [
        {
          "internalType": "address",
          "name": "",
          "type": "address"
        }
      ],
      "name": "ethBorrowedAmount",
      "outputs": [
        {
          "internalType": "uint256",
          "name": "",
          "type": "uint256"
        }
      ],
      "stateMutability": "view",
      "type": "function",
      "constant": true
    },
    {
      "inputs": [
        {
          "internalType": "address",
          "name": "",
          "type": "address"
        }
      ],
      "name": "ethLentAmount",
      "outputs": [
        {
          "internalType": "uint256",
          "name": "",
          "type": "uint256"
        }
      ],
      "stateMutability": "view",
      "type": "function",
      "constant": true
    },
    {
      "inputs": [
        {
          "internalType": "address",
          "name": "",
          "type": "address"
        }
      ],
      "name": "lendTimestamps",
      "outputs": [
        {
          "internalType": "uint256",
          "name": "",
          "type": "uint256"
        }
      ],
      "stateMutability": "view",
      "type": "function",
      "constant": true
    },
    {
      "inputs": [
        {
          "internalType": "uint256",
          "name": "",
          "type": "uint256"
        }
      ],
      "name": "lenders",
      "outputs": [
        {
          "internalType": "address",
          "name": "",
          "type": "address"
        }
      ],
      "stateMutability": "view",
      "type": "function",
      "constant": true
    },
    {
      "inputs": [],
      "name": "noOfEthBorrowed",
      "outputs": [
        {
          "internalType": "uint256",
          "name": "",
          "type": "uint256"
        }
      ],
      "stateMutability": "view",
      "type": "function",
      "constant": true
    },
    {
      "inputs": [],
      "name": "noOfEthLent",
      "outputs": [
        {
          "internalType": "uint256",
          "name": "",
          "type": "uint256"
        }
      ],
      "stateMutability": "view",
      "type": "function",
      "constant": true
    },
    {
      "inputs": [],
      "name": "owner",
      "outputs": [
        {
          "internalType": "address",
          "name": "",
          "type": "address"
        }
      ],
      "stateMutability": "view",
      "type": "function",
      "constant": true
    },
    {
      "inputs": [
        {
          "internalType": "address",
          "name": "",
          "type": "address"
        },
        {
          "internalType": "uint256",
          "name": "",
          "type": "uint256"
        }
      ],
      "name": "paidLoans",
      "outputs": [
        {
          "internalType": "uint256",
          "name": "amount",
          "type": "uint256"
        },
        {
          "internalType": "uint256",
          "name": "interest",
          "type": "uint256"
        },
        {
          "internalType": "uint256",
          "name": "dueDate",
          "type": "uint256"
        },
        {
          "internalType": "address",
          "name": "borrower",
          "type": "address"
        },
        {
          "internalType": "bool",
          "name": "isRepaid",
          "type": "bool"
        },
        {
          "internalType": "bool",
          "name": "approved",
          "type": "bool"
        }
      ],
      "stateMutability": "view",
      "type": "function",
      "constant": true
    },
    {
      "inputs": [],
      "name": "renounceOwnership",
      "outputs": [],
      "stateMutability": "nonpayable",
      "type": "function"
    },
    {
      "inputs": [],
      "name": "totalEthWon",
      "outputs": [
        {
          "internalType": "uint256",
          "name": "",
          "type": "uint256"
        }
      ],
      "stateMutability": "view",
      "type": "function",
      "constant": true
    },
    {
      "inputs": [
        {
          "internalType": "address",
          "name": "newOwner",
          "type": "address"
        }
      ],
      "name": "transferOwnership",
      "outputs": [],
      "stateMutability": "nonpayable",
      "type": "function"
    },
    {
      "inputs": [
        {
          "internalType": "uint256",
          "name": "_amount",
          "type": "uint256"
        },
        {
          "internalType": "uint256",
          "name": "_interest",
          "type": "uint256"
        }
      ],
      "name": "calculateInterest",
      "outputs": [
        {
          "internalType": "uint256",
          "name": "",
          "type": "uint256"
        }
      ],
      "stateMutability": "pure",
      "type": "function",
      "constant": true
    },
    {
      "inputs": [],
      "name": "getLenders",
      "outputs": [
        {
          "internalType": "address[]",
          "name": "",
          "type": "address[]"
        }
      ],
      "stateMutability": "view",
      "type": "function",
      "constant": true
    },
    {
      "inputs": [],
      "name": "getNoEthLent",
      "outputs": [
        {
          "internalType": "uint256",
          "name": "",
          "type": "uint256"
        }
      ],
      "stateMutability": "view",
      "type": "function",
      "constant": true
    },
    {
      "inputs": [],
      "name": "getBorrowers",
      "outputs": [
        {
          "internalType": "address[]",
          "name": "",
          "type": "address[]"
        }
      ],
      "stateMutability": "view",
      "type": "function",
      "constant": true
    },
    {
      "inputs": [],
      "name": "getMoney",
      "outputs": [
        {
          "internalType": "uint256",
          "name": "",
          "type": "uint256"
        }
      ],
      "stateMutability": "view",
      "type": "function",
      "constant": true
    },
    {
      "inputs": [
        {
          "internalType": "address",
          "name": "_borrower",
          "type": "address"
        }
      ],
      "name": "getActiveLoans",
      "outputs": [
        {
          "components": [
            {
              "internalType": "uint256",
              "name": "amount",
              "type": "uint256"
            },
            {
              "internalType": "uint256",
              "name": "interest",
              "type": "uint256"
            },
            {
              "internalType": "uint256",
              "name": "dueDate",
              "type": "uint256"
            },
            {
              "internalType": "address",
              "name": "borrower",
              "type": "address"
            },
            {
              "internalType": "bool",
              "name": "isRepaid",
              "type": "bool"
            },
            {
              "internalType": "bool",
              "name": "approved",
              "type": "bool"
            }
          ],
          "internalType": "struct LendingAndLoaning.Loan[]",
          "name": "",
          "type": "tuple[]"
        }
      ],
      "stateMutability": "view",
      "type": "function",
      "constant": true
    },
    {
      "inputs": [
        {
          "internalType": "address",
          "name": "_borrower",
          "type": "address"
        }
      ],
      "name": "getPaidLoans",
      "outputs": [
        {
          "components": [
            {
              "internalType": "uint256",
              "name": "amount",
              "type": "uint256"
            },
            {
              "internalType": "uint256",
              "name": "interest",
              "type": "uint256"
            },
            {
              "internalType": "uint256",
              "name": "dueDate",
              "type": "uint256"
            },
            {
              "internalType": "address",
              "name": "borrower",
              "type": "address"
            },
            {
              "internalType": "bool",
              "name": "isRepaid",
              "type": "bool"
            },
            {
              "internalType": "bool",
              "name": "approved",
              "type": "bool"
            }
          ],
          "internalType": "struct LendingAndLoaning.Loan[]",
          "name": "",
          "type": "tuple[]"
        }
      ],
      "stateMutability": "view",
      "type": "function",
      "constant": true
    },
    {
      "inputs": [
        {
          "internalType": "address",
          "name": "_lender",
          "type": "address"
        }
      ],
      "name": "getEthLentAmount",
      "outputs": [
        {
          "internalType": "uint256",
          "name": "",
          "type": "uint256"
        }
      ],
      "stateMutability": "view",
      "type": "function",
      "constant": true
    },
    {
      "inputs": [],
      "name": "withdraw",
      "outputs": [],
      "stateMutability": "payable",
      "type": "function",
      "payable": true
    },
    {
      "inputs": [
        {
          "internalType": "address",
          "name": "_borrower",
          "type": "address"
        },
        {
          "internalType": "uint256",
          "name": "_amount",
          "type": "uint256"
        }
      ],
      "name": "lend",
      "outputs": [],
      "stateMutability": "payable",
      "type": "function",
      "payable": true
    },
    {
      "inputs": [
        {
          "internalType": "uint256",
          "name": "_amount",
          "type": "uint256"
        },
        {
          "internalType": "uint256",
          "name": "_dueDate",
          "type": "uint256"
        }
      ],
      "name": "createLoan",
      "outputs": [],
      "stateMutability": "payable",
      "type": "function",
      "payable": true
    },
    {
      "inputs": [
        {
          "internalType": "address",
          "name": "_borrower",
          "type": "address"
        },
        {
          "internalType": "uint256",
          "name": "_index",
          "type": "uint256"
        }
      ],
      "name": "payLoan",
      "outputs": [],
      "stateMutability": "payable",
      "type": "function",
      "payable": true
    }
  ],
  "bytecode": "0x60806040526000600655600060075560006008553480156200002057600080fd5b5062000041620000356200004760201b60201c565b6200004f60201b60201c565b62000113565b600033905090565b60008060009054906101000a900473ffffffffffffffffffffffffffffffffffffffff169050816000806101000a81548173ffffffffffffffffffffffffffffffffffffffff021916908373ffffffffffffffffffffffffffffffffffffffff1602179055508173ffffffffffffffffffffffffffffffffffffffff168173ffffffffffffffffffffffffffffffffffffffff167f8be0079c531659141344cd1fd0a4f28419497f9722a3daafe3b4186f6b6457e060405160405180910390a35050565b612ef780620001236000396000f3fe6080604052600436106101665760003560e01c80638da5cb5b116100d157806399635d5c1161008a578063c8f78ea811610064578063c8f78ea81461054b578063cd0d011e14610567578063efdd7c07146105a4578063f2fde38b146105e157610166565b806399635d5c146104b0578063a2fb342d146104f2578063a73d64851461050e57610166565b80638da5cb5b14610399578063929eea21146103c457806395bc20ea14610401578063970967151461042c57806398cd90b51461046957806398e1b4101461048557610166565b8063661ca03711610123578063661ca037146102755780636854786a146102b2578063715018a6146102dd5780637924d93f146102f45780637e0018a714610331578063829268751461036e57610166565b806303d1a1a11461016b57806321111063146101a8578063235ed441146101ea5780632fae704a146102155780633ccfd60b146102405780634dda991d1461024a575b600080fd5b34801561017757600080fd5b50610192600480360381019061018d91906120fb565b61060a565b60405161019f9190612295565b60405180910390f35b3480156101b457600080fd5b506101cf60048036038101906101ca91906122e3565b610752565b6040516101e196959493929190612350565b60405180910390f35b3480156101f657600080fd5b506101ff6107e5565b60405161020c91906123b1565b60405180910390f35b34801561022157600080fd5b5061022a6107eb565b60405161023791906123b1565b60405180910390f35b6102486107f5565b005b34801561025657600080fd5b5061025f610b86565b60405161026c91906123b1565b60405180910390f35b34801561028157600080fd5b5061029c600480360381019061029791906120fb565b610b8c565b6040516102a99190612295565b60405180910390f35b3480156102be57600080fd5b506102c7610cd4565b6040516102d4919061247b565b60405180910390f35b3480156102e957600080fd5b506102f2610d62565b005b34801561030057600080fd5b5061031b6004803603810190610316919061249d565b610dea565b60405161032891906124ca565b60405180910390f35b34801561033d57600080fd5b50610358600480360381019061035391906120fb565b610e29565b60405161036591906123b1565b60405180910390f35b34801561037a57600080fd5b50610383610e41565b604051610390919061247b565b60405180910390f35b3480156103a557600080fd5b506103ae610ecf565b6040516103bb91906124ca565b60405180910390f35b3480156103d057600080fd5b506103eb60048036038101906103e6919061249d565b610ef8565b6040516103f891906124ca565b60405180910390f35b34801561040d57600080fd5b50610416610f37565b60405161042391906123b1565b60405180910390f35b34801561043857600080fd5b50610453600480360381019061044e91906120fb565b610f3d565b60405161046091906123b1565b60405180910390f35b610483600480360381019061047e91906124e5565b610f55565b005b34801561049157600080fd5b5061049a61130b565b6040516104a791906123b1565b60405180910390f35b3480156104bc57600080fd5b506104d760048036038101906104d291906122e3565b611313565b6040516104e996959493929190612350565b60405180910390f35b61050c600480360381019061050791906122e3565b6113a6565b005b34801561051a57600080fd5b50610535600480360381019061053091906120fb565b611799565b60405161054291906123b1565b60405180910390f35b610565600480360381019061056091906122e3565b6117e2565b005b34801561057357600080fd5b5061058e600480360381019061058991906120fb565b611de4565b60405161059b91906123b1565b60405180910390f35b3480156105b057600080fd5b506105cb60048036038101906105c691906124e5565b611dfc565b6040516105d891906123b1565b60405180910390f35b3480156105ed57600080fd5b50610608600480360381019061060391906120fb565b611e1e565b005b6060600960008373ffffffffffffffffffffffffffffffffffffffff1673ffffffffffffffffffffffffffffffffffffffff168152602001908152602001600020805480602002602001604051908101604052809291908181526020016000905b8282101561074757838290600052602060002090600402016040518060c00160405290816000820154815260200160018201548152602001600282015481526020016003820160009054906101000a900473ffffffffffffffffffffffffffffffffffffffff1673ffffffffffffffffffffffffffffffffffffffff1673ffffffffffffffffffffffffffffffffffffffff1681526020016003820160149054906101000a900460ff161515151581526020016003820160159054906101000a900460ff1615151515815250508152602001906001019061066b565b505050509050919050565b6009602052816000526040600020818154811061076e57600080fd5b9060005260206000209060040201600091509150508060000154908060010154908060020154908060030160009054906101000a900473ffffffffffffffffffffffffffffffffffffffff16908060030160149054906101000a900460ff16908060030160159054906101000a900460ff16905086565b60075481565b6000600654905090565b600360003373ffffffffffffffffffffffffffffffffffffffff1673ffffffffffffffffffffffffffffffffffffffff16815260200190815260200160002054471015610877576040517f08c379a000000000000000000000000000000000000000000000000000000000815260040161086e90612582565b60405180910390fd5b6000600360003373ffffffffffffffffffffffffffffffffffffffff1673ffffffffffffffffffffffffffffffffffffffff1681526020019081526020016000205490507f3c5ad147104e56be34a9176a6692f7df8d2f4b29a5af06bc6b98970d329d6577816040516108ea91906125ee565b60405180910390a17fb3f7d6c63a62ab0e6ae5263ef1deb9c5a64f4689288c380db949c116314a5540336040516109219190612668565b60405180910390a162278d00600560003373ffffffffffffffffffffffffffffffffffffffff1673ffffffffffffffffffffffffffffffffffffffff1681526020019081526020016000205461097791906126c5565b4210610a93576000600280549050600854610992919061274a565b8261099d91906126c5565b90506000600360003373ffffffffffffffffffffffffffffffffffffffff1673ffffffffffffffffffffffffffffffffffffffff168152602001908152602001600020819055506002805490506008546109f7919061274a565b60086000828254610a08919061277b565b925050819055507f3c5ad147104e56be34a9176a6692f7df8d2f4b29a5af06bc6b98970d329d657781604051610a3e91906127fb565b60405180910390a13373ffffffffffffffffffffffffffffffffffffffff166108fc829081150290604051600060405180830381858888f19350505050158015610a8c573d6000803e3d6000fd5b5050610b57565b6000600360003373ffffffffffffffffffffffffffffffffffffffff1673ffffffffffffffffffffffffffffffffffffffff168152602001908152602001600020819055507f3c5ad147104e56be34a9176a6692f7df8d2f4b29a5af06bc6b98970d329d657781604051610b079190612875565b60405180910390a13373ffffffffffffffffffffffffffffffffffffffff166108fc829081150290604051600060405180830381858888f19350505050158015610b55573d6000803e3d6000fd5b505b7f57ea89b6814fccbbe8728fa89cc8e6b5477e559b2a34e946e105b11112e94b5860405160405180910390a150565b60065481565b6060600a60008373ffffffffffffffffffffffffffffffffffffffff1673ffffffffffffffffffffffffffffffffffffffff168152602001908152602001600020805480602002602001604051908101604052809291908181526020016000905b82821015610cc957838290600052602060002090600402016040518060c00160405290816000820154815260200160018201548152602001600282015481526020016003820160009054906101000a900473ffffffffffffffffffffffffffffffffffffffff1673ffffffffffffffffffffffffffffffffffffffff1673ffffffffffffffffffffffffffffffffffffffff1681526020016003820160149054906101000a900460ff161515151581526020016003820160159054906101000a900460ff16151515158152505081526020019060010190610bed565b505050509050919050565b60606001805480602002602001604051908101604052809291908181526020018280548015610d5857602002820191906000526020600020905b8160009054906101000a900473ffffffffffffffffffffffffffffffffffffffff1673ffffffffffffffffffffffffffffffffffffffff1681526020019060010190808311610d0e575b5050505050905090565b610d6a611f15565b73ffffffffffffffffffffffffffffffffffffffff16610d88610ecf565b73ffffffffffffffffffffffffffffffffffffffff1614610dde576040517f08c379a0000000000000000000000000000000000000000000000000000000008152600401610dd5906128ef565b60405180910390fd5b610de86000611f1d565b565b60018181548110610dfa57600080fd5b906000526020600020016000915054906101000a900473ffffffffffffffffffffffffffffffffffffffff1681565b60046020528060005260406000206000915090505481565b60606002805480602002602001604051908101604052809291908181526020018280548015610ec557602002820191906000526020600020905b8160009054906101000a900473ffffffffffffffffffffffffffffffffffffffff1673ffffffffffffffffffffffffffffffffffffffff1681526020019060010190808311610e7b575b5050505050905090565b60008060009054906101000a900473ffffffffffffffffffffffffffffffffffffffff16905090565b60028181548110610f0857600080fd5b906000526020600020016000915054906101000a900473ffffffffffffffffffffffffffffffffffffffff1681565b60085481565b60056020528060005260406000206000915090505481565b60008211610f98576040517f08c379a0000000000000000000000000000000000000000000000000000000008152600401610f8f9061295b565b60405180910390fd5b816006541015610fdd576040517f08c379a0000000000000000000000000000000000000000000000000000000008152600401610fd4906129ed565b60405180910390fd5b60008061107033600180548060200260200160405190810160405280929190818152602001828054801561106657602002820191906000526020600020905b8160009054906101000a900473ffffffffffffffffffffffffffffffffffffffff1673ffffffffffffffffffffffffffffffffffffffff168152602001906001019080831161101c575b5050505050611fe1565b91509150600960003373ffffffffffffffffffffffffffffffffffffffff1673ffffffffffffffffffffffffffffffffffffffff1681526020019081526020016000206040518060c00160405280868152602001600a81526020018581526020013373ffffffffffffffffffffffffffffffffffffffff16815260200160001515815260200160001515815250908060018154018082558091505060019003906000526020600020906004020160009091909190915060008201518160000155602082015181600101556040820151816002015560608201518160030160006101000a81548173ffffffffffffffffffffffffffffffffffffffff021916908373ffffffffffffffffffffffffffffffffffffffff16021790555060808201518160030160146101000a81548160ff02191690831515021790555060a08201518160030160156101000a81548160ff021916908315150217905550505081611236576001339080600181540180825580915050600190039060005260206000200160009091909190916101000a81548173ffffffffffffffffffffffffffffffffffffffff021916908373ffffffffffffffffffffffffffffffffffffffff1602179055505b83600460003373ffffffffffffffffffffffffffffffffffffffff1673ffffffffffffffffffffffffffffffffffffffff168152602001908152602001600020600082825461128591906126c5565b92505081905550836007600082825461129e91906126c5565b9250508190555083600660008282546112b7919061277b565b925050819055503373ffffffffffffffffffffffffffffffffffffffff166108fc859081150290604051600060405180830381858888f19350505050158015611304573d6000803e3d6000fd5b5050505050565b600047905090565b600a602052816000526040600020818154811061132f57600080fd5b9060005260206000209060040201600091509150508060000154908060010154908060020154908060030160009054906101000a900473ffffffffffffffffffffffffffffffffffffffff16908060030160149054906101000a900460ff16908060030160159054906101000a900460ff16905086565b8034146113e8576040517f08c379a00000000000000000000000000000000000000000000000000000000081526004016113df90612a7f565b60405180910390fd5b3373ffffffffffffffffffffffffffffffffffffffff1631811115611442576040517f08c379a000000000000000000000000000000000000000000000000000000000815260040161143990612aeb565b60405180910390fd5b6000806114d58460018054806020026020016040519081016040528092919081815260200182805480156114cb57602002820191906000526020600020905b8160009054906101000a900473ffffffffffffffffffffffffffffffffffffffff1673ffffffffffffffffffffffffffffffffffffffff1681526020019060010190808311611481575b5050505050611fe1565b9150915081156115d85782600360003373ffffffffffffffffffffffffffffffffffffffff1673ffffffffffffffffffffffffffffffffffffffff168152602001908152602001600020600082825461152e91906126c5565b92505081905550826006600082825461154791906126c5565b925050819055507f2aa429260dac0e7f8aedd8dff9450eca76935cf8acb86253a57f79f88d7cf4d3338460065485856002600360003373ffffffffffffffffffffffffffffffffffffffff1673ffffffffffffffffffffffffffffffffffffffff168152602001908152602001600020546040516115cb9796959493929190612c10565b60405180910390a1611793565b6001849080600181540180825580915050600190039060005260206000200160009091909190916101000a81548173ffffffffffffffffffffffffffffffffffffffff021916908373ffffffffffffffffffffffffffffffffffffffff1602179055506002339080600181540180825580915050600190039060005260206000200160009091909190916101000a81548173ffffffffffffffffffffffffffffffffffffffff021916908373ffffffffffffffffffffffffffffffffffffffff16021790555082600360003373ffffffffffffffffffffffffffffffffffffffff1673ffffffffffffffffffffffffffffffffffffffff16815260200190815260200160002060008282546116ed91906126c5565b92505081905550826006600082825461170691906126c5565b925050819055507f2aa429260dac0e7f8aedd8dff9450eca76935cf8acb86253a57f79f88d7cf4d3338460065485856002600360003373ffffffffffffffffffffffffffffffffffffffff1673ffffffffffffffffffffffffffffffffffffffff1681526020019081526020016000205460405161178a9796959493929190612c10565b60405180910390a15b50505050565b6000600360008373ffffffffffffffffffffffffffffffffffffffff1673ffffffffffffffffffffffffffffffffffffffff168152602001908152602001600020549050919050565b600960008373ffffffffffffffffffffffffffffffffffffffff1673ffffffffffffffffffffffffffffffffffffffff168152602001908152602001600020805490508110611866576040517f08c379a000000000000000000000000000000000000000000000000000000000815260040161185d90612cd2565b60405180910390fd5b60001515600960008473ffffffffffffffffffffffffffffffffffffffff1673ffffffffffffffffffffffffffffffffffffffff16815260200190815260200160002082815481106118bb576118ba612cf2565b5b906000526020600020906004020160030160149054906101000a900460ff1615151461191c576040517f08c379a000000000000000000000000000000000000000000000000000000000815260040161191390612d6d565b60405180910390fd5b60006119ec600960008573ffffffffffffffffffffffffffffffffffffffff1673ffffffffffffffffffffffffffffffffffffffff168152602001908152602001600020838154811061197257611971612cf2565b5b906000526020600020906004020160000154600960008673ffffffffffffffffffffffffffffffffffffffff1673ffffffffffffffffffffffffffffffffffffffff16815260200190815260200160002084815481106119d5576119d4612cf2565b5b906000526020600020906004020160010154611dfc565b600960008573ffffffffffffffffffffffffffffffffffffffff1673ffffffffffffffffffffffffffffffffffffffff1681526020019081526020016000208381548110611a3d57611a3c612cf2565b5b906000526020600020906004020160000154611a5991906126c5565b90506001600960008573ffffffffffffffffffffffffffffffffffffffff1673ffffffffffffffffffffffffffffffffffffffff1681526020019081526020016000208381548110611aae57611aad612cf2565b5b906000526020600020906004020160030160146101000a81548160ff021916908315150217905550600a60008473ffffffffffffffffffffffffffffffffffffffff1673ffffffffffffffffffffffffffffffffffffffff168152602001908152602001600020600960008573ffffffffffffffffffffffffffffffffffffffff1673ffffffffffffffffffffffffffffffffffffffff1681526020019081526020016000208381548110611b6657611b65612cf2565b5b906000526020600020906004020190806001815401808255809150506001900390600052602060002090600402016000909190919091506000820154816000015560018201548160010155600282015481600201556003820160009054906101000a900473ffffffffffffffffffffffffffffffffffffffff168160030160006101000a81548173ffffffffffffffffffffffffffffffffffffffff021916908373ffffffffffffffffffffffffffffffffffffffff1602179055506003820160149054906101000a900460ff168160030160146101000a81548160ff0219169083151502179055506003820160159054906101000a900460ff168160030160156101000a81548160ff0219169083151502179055505050600960008473ffffffffffffffffffffffffffffffffffffffff1673ffffffffffffffffffffffffffffffffffffffff1681526020019081526020016000208281548110611ccf57611cce612cf2565b5b90600052602060002090600402016000015460066000828254611cf291906126c5565b92505081905550611dc7600960008573ffffffffffffffffffffffffffffffffffffffff1673ffffffffffffffffffffffffffffffffffffffff1681526020019081526020016000208381548110611d4d57611d4c612cf2565b5b906000526020600020906004020160000154600960008673ffffffffffffffffffffffffffffffffffffffff1673ffffffffffffffffffffffffffffffffffffffff1681526020019081526020016000208481548110611db057611daf612cf2565b5b906000526020600020906004020160010154611dfc565b60086000828254611dd891906126c5565b92505081905550505050565b60036020528060005260406000206000915090505481565b600060648284611e0c9190612d8d565b611e16919061274a565b905092915050565b611e26611f15565b73ffffffffffffffffffffffffffffffffffffffff16611e44610ecf565b73ffffffffffffffffffffffffffffffffffffffff1614611e9a576040517f08c379a0000000000000000000000000000000000000000000000000000000008152600401611e91906128ef565b60405180910390fd5b600073ffffffffffffffffffffffffffffffffffffffff168173ffffffffffffffffffffffffffffffffffffffff1603611f09576040517f08c379a0000000000000000000000000000000000000000000000000000000008152600401611f0090612e59565b60405180910390fd5b611f1281611f1d565b50565b600033905090565b60008060009054906101000a900473ffffffffffffffffffffffffffffffffffffffff169050816000806101000a81548173ffffffffffffffffffffffffffffffffffffffff021916908373ffffffffffffffffffffffffffffffffffffffff1602179055508173ffffffffffffffffffffffffffffffffffffffff168173ffffffffffffffffffffffffffffffffffffffff167f8be0079c531659141344cd1fd0a4f28419497f9722a3daafe3b4186f6b6457e060405160405180910390a35050565b6000806000835111156120695760005b83518110156120675783818151811061200d5761200c612cf2565b5b602002602001015173ffffffffffffffffffffffffffffffffffffffff168573ffffffffffffffffffffffffffffffffffffffff1603612054576001819250925050612091565b808061205f90612e79565b915050611ff1565b505b60007fffffffffffffffffffffffffffffffffffffffffffffffffffffffffffffffff915091505b9250929050565b600080fd5b600073ffffffffffffffffffffffffffffffffffffffff82169050919050565b60006120c88261209d565b9050919050565b6120d8816120bd565b81146120e357600080fd5b50565b6000813590506120f5816120cf565b92915050565b60006020828403121561211157612110612098565b5b600061211f848285016120e6565b91505092915050565b600081519050919050565b600082825260208201905092915050565b6000819050602082019050919050565b6000819050919050565b61216781612154565b82525050565b612176816120bd565b82525050565b60008115159050919050565b6121918161217c565b82525050565b60c0820160008201516121ad600085018261215e565b5060208201516121c0602085018261215e565b5060408201516121d3604085018261215e565b5060608201516121e6606085018261216d565b5060808201516121f96080850182612188565b5060a082015161220c60a0850182612188565b50505050565b600061221e8383612197565b60c08301905092915050565b6000602082019050919050565b600061224282612128565b61224c8185612133565b935061225783612144565b8060005b8381101561228857815161226f8882612212565b975061227a8361222a565b92505060018101905061225b565b5085935050505092915050565b600060208201905081810360008301526122af8184612237565b905092915050565b6122c081612154565b81146122cb57600080fd5b50565b6000813590506122dd816122b7565b92915050565b600080604083850312156122fa576122f9612098565b5b6000612308858286016120e6565b9250506020612319858286016122ce565b9150509250929050565b61232c81612154565b82525050565b61233b816120bd565b82525050565b61234a8161217c565b82525050565b600060c0820190506123656000830189612323565b6123726020830188612323565b61237f6040830187612323565b61238c6060830186612332565b6123996080830185612341565b6123a660a0830184612341565b979650505050505050565b60006020820190506123c66000830184612323565b92915050565b600081519050919050565b600082825260208201905092915050565b6000819050602082019050919050565b6000612404838361216d565b60208301905092915050565b6000602082019050919050565b6000612428826123cc565b61243281856123d7565b935061243d836123e8565b8060005b8381101561246e57815161245588826123f8565b975061246083612410565b925050600181019050612441565b5085935050505092915050565b60006020820190508181036000830152612495818461241d565b905092915050565b6000602082840312156124b3576124b2612098565b5b60006124c1848285016122ce565b91505092915050565b60006020820190506124df6000830184612332565b92915050565b600080604083850312156124fc576124fb612098565b5b600061250a858286016122ce565b925050602061251b858286016122ce565b9150509250929050565b600082825260208201905092915050565b7f496e73756666696369656e74206c656e7420616d6f756e740000000000000000600082015250565b600061256c601883612525565b915061257782612536565b602082019050919050565b6000602082019050818103600083015261259b8161255f565b9050919050565b7f57697468647261772066756e6374696f6e2063616c6c65640000000000000000600082015250565b60006125d8601883612525565b91506125e3826125a2565b602082019050919050565b60006040820190508181036000830152612607816125cb565b90506126166020830184612323565b92915050565b7f5769746864726177206164647265737300000000000000000000000000000000600082015250565b6000612652601083612525565b915061265d8261261c565b602082019050919050565b6000604082019050818103600083015261268181612645565b90506126906020830184612332565b92915050565b7f4e487b7100000000000000000000000000000000000000000000000000000000600052601160045260246000fd5b60006126d082612154565b91506126db83612154565b9250827fffffffffffffffffffffffffffffffffffffffffffffffffffffffffffffffff038211156127105761270f612696565b5b828201905092915050565b7f4e487b7100000000000000000000000000000000000000000000000000000000600052601260045260246000fd5b600061275582612154565b915061276083612154565b9250826127705761276f61271b565b5b828204905092915050565b600061278682612154565b915061279183612154565b9250828210156127a4576127a3612696565b5b828203905092915050565b7f576974686472617720616d6f756e74207769746820696e746572657374000000600082015250565b60006127e5601d83612525565b91506127f0826127af565b602082019050919050565b60006040820190508181036000830152612814816127d8565b90506128236020830184612323565b92915050565b7f576974686472617720616d6f756e7420776974686f757420696e746572657374600082015250565b600061285f602083612525565b915061286a82612829565b602082019050919050565b6000604082019050818103600083015261288e81612852565b905061289d6020830184612323565b92915050565b7f4f776e61626c653a2063616c6c6572206973206e6f7420746865206f776e6572600082015250565b60006128d9602083612525565b91506128e4826128a3565b602082019050919050565b60006020820190508181036000830152612908816128cc565b9050919050565b7f496e76616c6964206c6f616e20616d6f756e7400000000000000000000000000600082015250565b6000612945601383612525565b91506129508261290f565b602082019050919050565b6000602082019050818103600083015261297481612938565b9050919050565b7f4e6f7420656e6f7567682045544820617661696c61626c6520666f72206c656e60008201527f64696e6700000000000000000000000000000000000000000000000000000000602082015250565b60006129d7602483612525565b91506129e28261297b565b604082019050919050565b60006020820190508181036000830152612a06816129ca565b9050919050565b7f53656e742045544820616d6f756e7420646f6573206e6f74206d61746368207460008201527f6865206c656e6420616d6f756e74000000000000000000000000000000000000602082015250565b6000612a69602e83612525565b9150612a7482612a0d565b604082019050919050565b60006020820190508181036000830152612a9881612a5c565b9050919050565b7f4e6f7420656e6f7567682062616c616e636520746f206c656e64000000000000600082015250565b6000612ad5601a83612525565b9150612ae082612a9f565b602082019050919050565b60006020820190508181036000830152612b0481612ac8565b9050919050565b6000819050919050565b612b1e81612b0b565b82525050565b600081549050919050565b60008190508160005260206000209050919050565b60008160001c9050919050565b600073ffffffffffffffffffffffffffffffffffffffff82169050919050565b6000612b84612b7f83612b44565b612b51565b9050919050565b6000612b978254612b71565b9050919050565b6000600182019050919050565b6000612bb682612b24565b612bc081856123d7565b9350612bcb83612b2f565b8060005b83811015612c0357612be082612b8b565b612bea88826123f8565b9750612bf583612b9e565b925050600181019050612bcf565b5085935050505092915050565b600060e082019050612c25600083018a612332565b612c326020830189612323565b612c3f6040830188612323565b612c4c6060830187612341565b612c596080830186612b15565b81810360a0830152612c6b8185612bab565b9050612c7a60c0830184612323565b98975050505050505050565b7f496e76616c696420696e64657800000000000000000000000000000000000000600082015250565b6000612cbc600d83612525565b9150612cc782612c86565b602082019050919050565b60006020820190508181036000830152612ceb81612caf565b9050919050565b7f4e487b7100000000000000000000000000000000000000000000000000000000600052603260045260246000fd5b7f4c6f616e20616c72656164792072657061696400000000000000000000000000600082015250565b6000612d57601383612525565b9150612d6282612d21565b602082019050919050565b60006020820190508181036000830152612d8681612d4a565b9050919050565b6000612d9882612154565b9150612da383612154565b9250817fffffffffffffffffffffffffffffffffffffffffffffffffffffffffffffffff0483118215151615612ddc57612ddb612696565b5b828202905092915050565b7f4f776e61626c653a206e6577206f776e657220697320746865207a65726f206160008201527f6464726573730000000000000000000000000000000000000000000000000000602082015250565b6000612e43602683612525565b9150612e4e82612de7565b604082019050919050565b60006020820190508181036000830152612e7281612e36565b9050919050565b6000612e8482612154565b91507fffffffffffffffffffffffffffffffffffffffffffffffffffffffffffffffff8203612eb657612eb5612696565b5b60018201905091905056fea2646970667358221220cb60d6dbb9e4432f83414a75752aafff692728e1eff7821b736da7270a12561264736f6c634300080d0033",
  "immutableReferences": {},
  "source": "// SPDX-License-Identifier: MIT\r\npragma solidity ^0.8.13;\r\n\r\nimport \"./helper.sol\";\r\nimport \"@openzeppelin/contracts/access/Ownable.sol\";\r\n\r\ncontract LendingAndLoaning is Ownable {\r\n    address[] public borrowers;\r\n    address[] public lenders;\r\n\r\n    mapping(address => uint256) public ethLentAmount;\r\n    mapping(address => uint256) public ethBorrowedAmount;\r\n    mapping(address => uint256) public lendTimestamps;\r\n\r\n    event Withdraw();\r\n    event PayLoan(address _from, address _to, uint256 _index);\r\n\r\n\r\n    event Lend(\r\n        address sender,\r\n        uint256 amountInDollars,\r\n        uint256 totalAmountAvailableForLendInDollars,\r\n        bool userPresent,\r\n        int256 userIndex,\r\n        address[] lenders,\r\n        uint256 currentUserEthLentAmount\r\n    );\r\n\r\n    //event ApproveLoan(address sender, uint256 index, uint256 amount, uint256 interest, uint256 dueDate);\r\n   // event RejectLoan(address sender, uint256 index, uint256 amount, uint256 interest, uint256 dueDate);\r\n    event PayLoan(address sender, uint256 index, uint256 amount, uint256 interest, uint256 dueDate);\r\n\r\n    event LoanMade(uint256 index,address sender, uint256 amount, uint256 interest, uint256 dueDate);\r\n    event Debug(string message, uint256 value);\r\n    event DebugAddress(string message, address addr);\r\n\r\n    uint256 public noOfEthLent = 0;\r\n    uint256 public noOfEthBorrowed = 0;\r\n    uint256 public totalEthWon = 0;\r\n\r\n    struct Loan {\r\n        uint256 amount;\r\n        uint256 interest;\r\n        uint256 dueDate;\r\n        address borrower;\r\n        bool isRepaid;\r\n        bool approved;\r\n    }\r\n\r\n    //mapping(address => Loan[]) public requestedLoans;\r\n    mapping(address => Loan[]) public activeLoans;\r\n    mapping(address => Loan[]) public paidLoans;\r\n\r\n    constructor() {}\r\n\r\n\r\n    function calculateInterest(uint256 _amount, uint256 _interest) public pure returns (uint256) {\r\n        return (_amount * _interest) / 100;\r\n    }\r\n\r\n    function getLenders() public view returns (address[] memory) {\r\n        return lenders;\r\n    }\r\n\r\n    function getNoEthLent() public view returns (uint256) {\r\n        return noOfEthLent;\r\n    }\r\n\r\n    function getBorrowers() public view returns (address[] memory) {\r\n        return borrowers;\r\n    }\r\n\r\n    function getMoney() public view returns (uint256) {\r\n        return address(this).balance;\r\n    }\r\n\r\n    // function getRequestedLoans(address _borrower) public view returns (Loan[] memory) {\r\n    //     return requestedLoans[_borrower];\r\n    // }\r\n\r\n    function getActiveLoans(address _borrower) public view returns (Loan[] memory) {\r\n        return activeLoans[_borrower];\r\n    }\r\n\r\n    function getPaidLoans(address _borrower) public view returns (Loan[] memory) {\r\n        return paidLoans[_borrower];\r\n    }\r\n\r\n    function getEthLentAmount(address _lender) public view returns (uint256) {\r\n        return ethLentAmount[_lender];\r\n    }\r\n\r\n    function withdraw() public payable {\r\n        require(address(this).balance >= ethLentAmount[msg.sender], \"Insufficient lent amount\");\r\n\r\n        uint256 value = ethLentAmount[msg.sender];\r\n        emit Debug(\"Withdraw function called\", value);\r\n        emit DebugAddress(\"Withdraw address\", msg.sender);\r\n\r\n        if (block.timestamp >= lendTimestamps[msg.sender] + 30 days) {\r\n            uint256 ReciveValue = value + totalEthWon / lenders.length;\r\n            ethLentAmount[msg.sender] = 0;\r\n            totalEthWon -= totalEthWon / lenders.length;\r\n            emit Debug(\"Withdraw amount with interest\", ReciveValue);\r\n            payable(msg.sender).transfer(ReciveValue);\r\n        } else {\r\n            ethLentAmount[msg.sender] = 0;\r\n            emit Debug(\"Withdraw amount without interest\", value);\r\n            payable(msg.sender).transfer(value);\r\n        }\r\n\r\n        emit Withdraw();\r\n    }\r\n\r\n    function lend(address _borrower, uint256 _amount) public payable {\r\n    require(msg.value == _amount, \"Sent ETH amount does not match the lend amount\");\r\n    require(_amount <= address(msg.sender).balance, \"Not enough balance to lend\");\r\n\r\n    (bool userPresent, int256 userIndex) = helper.isUserIn(_borrower, borrowers);\r\n    if (userPresent) {\r\n        ethLentAmount[msg.sender] += _amount;\r\n        noOfEthLent += _amount;\r\n        emit Lend(\r\n            msg.sender,\r\n            _amount,\r\n            noOfEthLent,\r\n            userPresent,\r\n            userIndex,\r\n            lenders,\r\n            ethLentAmount[msg.sender] // corectat pentru lender\r\n        );\r\n    } else {\r\n        borrowers.push(_borrower);\r\n        lenders.push(msg.sender); // adugai lender n lista\r\n        ethLentAmount[msg.sender] += _amount;\r\n        noOfEthLent += _amount;\r\n        emit Lend(\r\n            msg.sender,\r\n            _amount,\r\n            noOfEthLent,\r\n            userPresent,\r\n            userIndex,\r\n            lenders,\r\n            ethLentAmount[msg.sender] // corectat pentru lender\r\n        );\r\n    }\r\n}\r\n\r\n    function createLoan(uint256 _amount,  uint _dueDate) public payable  {\r\n        require(_amount > 0, \"Invalid loan amount\");\r\n        require(noOfEthLent >= _amount, \"Not enough ETH available for lending\");\r\n\r\n        (bool userPresent, int256 userIndex) = helper.isUserIn(msg.sender, borrowers);\r\n        userIndex = userIndex;\r\n         activeLoans[msg.sender].push(Loan(_amount, 10, _dueDate, msg.sender, false, false));\r\n        if (!userPresent) {\r\n            borrowers.push(msg.sender);\r\n        }\r\n        \r\n        ethBorrowedAmount[msg.sender] += _amount;\r\n        noOfEthBorrowed += _amount;\r\n        noOfEthLent -= _amount;\r\n        \r\n        payable(msg.sender).transfer(_amount);\r\n    }\r\n\r\n    function payLoan(address _borrower, uint256 _index) public payable {\r\n    require(_index < activeLoans[_borrower].length, \"Invalid index\");\r\n    require(activeLoans[_borrower][_index].isRepaid == false, \"Loan already repaid\");\r\n\r\n    uint256 amountToPay = activeLoans[_borrower][_index].amount + calculateInterest(activeLoans[_borrower][_index].amount, activeLoans[_borrower][_index].interest);\r\n\r\n    \r\n    activeLoans[_borrower][_index].isRepaid = true;\r\n    paidLoans[_borrower].push(activeLoans[_borrower][_index]);\r\n\r\n    noOfEthLent += activeLoans[_borrower][_index].amount;\r\n    totalEthWon += calculateInterest(activeLoans[_borrower][_index].amount, activeLoans[_borrower][_index].interest);\r\n}\r\n}",
  "sourcePath": "C:\\Users\\sumur\\Desktop\\An3\\Sistem-de-Imprumuturi-DeFi\\contracts\\LendingAndLoaning.sol",
  "compiler": {
    "name": "solc",
    "version": "0.8.13+commit.abaa5c0e.Emscripten.clang"
  },
  "schemaVersion": "3.4.16",
  "updatedAt": "2025-04-07T04:20:07.611Z",
  "networkType": "ethereum",
  "devdoc": {
    "kind": "dev",
    "methods": {
      "owner()": {
        "details": "Returns the address of the current owner."
      },
      "renounceOwnership()": {
        "details": "Leaves the contract without owner. It will not be possible to call `onlyOwner` functions anymore. Can only be called by the current owner. NOTE: Renouncing ownership will leave the contract without an owner, thereby removing any functionality that is only available to the owner."
      },
      "transferOwnership(address)": {
        "details": "Transfers ownership of the contract to a new account (`newOwner`). Can only be called by the current owner."
      }
    },
    "version": 1
  },
  "userdoc": {
    "kind": "user",
    "methods": {},
    "version": 1
  }
}