{
  "contractName": "LoanProxy",
  "abi": [
    {
      "inputs": [
        {
          "internalType": "address",
          "name": "_loanLogic",
          "type": "address"
        }
      ],
      "stateMutability": "nonpayable",
      "type": "constructor"
    },
    {
      "stateMutability": "payable",
      "type": "fallback"
    },
    {
      "inputs": [],
      "name": "loanLogic",
      "outputs": [
        {
          "internalType": "address",
          "name": "",
          "type": "address"
        }
      ],
      "stateMutability": "view",
      "type": "function"
    },
    {
      "inputs": [],
      "name": "owner",
      "outputs": [
        {
          "internalType": "address",
          "name": "",
          "type": "address"
        }
      ],
      "stateMutability": "view",
      "type": "function"
    },
    {
      "stateMutability": "payable",
      "type": "receive"
    },
    {
      "inputs": [
        {
          "internalType": "address",
          "name": "_newLogic",
          "type": "address"
        }
      ],
      "name": "upgrade",
      "outputs": [],
      "stateMutability": "nonpayable",
      "type": "function"
    }
  ],
  "bytecode": "0x608060405234801561001057600080fd5b506040516106353803806106358339818101604052810190610032919061011c565b806000806101000a81548173ffffffffffffffffffffffffffffffffffffffff021916908373ffffffffffffffffffffffffffffffffffffffff16021790555033600160006101000a81548173ffffffffffffffffffffffffffffffffffffffff021916908373ffffffffffffffffffffffffffffffffffffffff16021790555050610149565b600080fd5b600073ffffffffffffffffffffffffffffffffffffffff82169050919050565b60006100e9826100be565b9050919050565b6100f9816100de565b811461010457600080fd5b50565b600081519050610116816100f0565b92915050565b600060208284031215610132576101316100b9565b5b600061014084828501610107565b91505092915050565b6104dd806101586000396000f3fe6080604052600436106100385760003560e01c80630900f01014610110578063348e2781146101395780638da5cb5b146101645761003f565b3661003f57005b60008060009054906101000a900473ffffffffffffffffffffffffffffffffffffffff1673ffffffffffffffffffffffffffffffffffffffff1660003660405161008a9291906102eb565b600060405180830381855af49150503d80600081146100c5576040519150601f19603f3d011682016040523d82523d6000602084013e6100ca565b606091505b505090508061010e576040517f08c379a000000000000000000000000000000000000000000000000000000000815260040161010590610361565b60405180910390fd5b005b34801561011c57600080fd5b50610137600480360381019061013291906103e4565b61018f565b005b34801561014557600080fd5b5061014e610262565b60405161015b9190610420565b60405180910390f35b34801561017057600080fd5b50610179610286565b6040516101869190610420565b60405180910390f35b600160009054906101000a900473ffffffffffffffffffffffffffffffffffffffff1673ffffffffffffffffffffffffffffffffffffffff163373ffffffffffffffffffffffffffffffffffffffff161461021f576040517f08c379a000000000000000000000000000000000000000000000000000000000815260040161021690610487565b60405180910390fd5b806000806101000a81548173ffffffffffffffffffffffffffffffffffffffff021916908373ffffffffffffffffffffffffffffffffffffffff16021790555050565b60008054906101000a900473ffffffffffffffffffffffffffffffffffffffff1681565b600160009054906101000a900473ffffffffffffffffffffffffffffffffffffffff1681565b600081905092915050565b82818337600083830152505050565b60006102d283856102ac565b93506102df8385846102b7565b82840190509392505050565b60006102f88284866102c6565b91508190509392505050565b600082825260208201905092915050565b7f44656c656761746563616c6c206661696c656400000000000000000000000000600082015250565b600061034b601383610304565b915061035682610315565b602082019050919050565b6000602082019050818103600083015261037a8161033e565b9050919050565b600080fd5b600073ffffffffffffffffffffffffffffffffffffffff82169050919050565b60006103b182610386565b9050919050565b6103c1816103a6565b81146103cc57600080fd5b50565b6000813590506103de816103b8565b92915050565b6000602082840312156103fa576103f9610381565b5b6000610408848285016103cf565b91505092915050565b61041a816103a6565b82525050565b60006020820190506104356000830184610411565b92915050565b7f4e6f7420746865206f776e657200000000000000000000000000000000000000600082015250565b6000610471600d83610304565b915061047c8261043b565b602082019050919050565b600060208201905081810360008301526104a081610464565b905091905056fea2646970667358221220407c4ac984d941fcc70a087f64ccac7add32eee0f3c7148bddde03401cb96ed364736f6c634300080d0033",
  "immutableReferences": {},
  "source": "// SPDX-License-Identifier: MIT\r\npragma solidity ^0.8.13;\r\n\r\ncontract LoanProxy {\r\n    address public loanLogic; // Adresa contractului logic (DeFiLoan)\r\n    address public owner;\r\n\r\n    constructor(address _loanLogic) {\r\n        loanLogic = _loanLogic;\r\n        owner = msg.sender;\r\n    }\r\n\r\n    modifier onlyOwner() {\r\n        require(msg.sender == owner, \"Not the owner\");\r\n        _;\r\n    }\r\n\r\n    \r\n    function upgrade(address _newLogic) public onlyOwner {\r\n        loanLogic = _newLogic;\r\n    }\r\n\r\n    \r\n    receive() external payable {}\r\n\r\n   \r\n    fallback() external payable {\r\n        (bool success, ) = loanLogic.delegatecall(msg.data);\r\n        require(success, \"Delegatecall failed\");\r\n    }\r\n}\r\n",
  "sourcePath": "C:\\Users\\sumur\\Desktop\\An3\\Sistem-de-Imprumuturi-DeFi\\contracts\\LoanProxy.sol",
  "compiler": {
    "name": "solc",
    "version": "0.8.13+commit.abaa5c0e.Emscripten.clang"
  },
  "schemaVersion": "3.4.16",
  "updatedAt": "2025-02-21T08:22:10.385Z",
  "devdoc": {
    "kind": "dev",
    "methods": {},
    "version": 1
  },
  "userdoc": {
    "kind": "user",
    "methods": {},
    "version": 1
  }
}