{
  "contractName": "LoanLibrary",
  "abi": [
    {
      "inputs": [
        {
          "internalType": "uint256",
          "name": "amount",
          "type": "uint256"
        },
        {
          "internalType": "uint256",
          "name": "rate",
          "type": "uint256"
        }
      ],
      "name": "calculateInterest",
      "outputs": [
        {
          "internalType": "uint256",
          "name": "",
          "type": "uint256"
        }
      ],
      "stateMutability": "pure",
      "type": "function"
    }
  ],
  "bytecode": "0x610250610053600b82828239805160001a607314610046577f4e487b7100000000000000000000000000000000000000000000000000000000600052600060045260246000fd5b30600052607381538281f3fe73000000000000000000000000000000000000000030146080604052600436106100355760003560e01c8063efdd7c071461003a575b600080fd5b610054600480360381019061004f91906100c7565b61006a565b6040516100619190610116565b60405180910390f35b60006064828461007a9190610160565b61008491906101e9565b905092915050565b600080fd5b6000819050919050565b6100a481610091565b81146100af57600080fd5b50565b6000813590506100c18161009b565b92915050565b600080604083850312156100de576100dd61008c565b5b60006100ec858286016100b2565b92505060206100fd858286016100b2565b9150509250929050565b61011081610091565b82525050565b600060208201905061012b6000830184610107565b92915050565b7f4e487b7100000000000000000000000000000000000000000000000000000000600052601160045260246000fd5b600061016b82610091565b915061017683610091565b9250817fffffffffffffffffffffffffffffffffffffffffffffffffffffffffffffffff04831182151516156101af576101ae610131565b5b828202905092915050565b7f4e487b7100000000000000000000000000000000000000000000000000000000600052601260045260246000fd5b60006101f482610091565b91506101ff83610091565b92508261020f5761020e6101ba565b5b82820490509291505056fea2646970667358221220e4687f1394c4e7da2a8661b45e7bbb41b124d805256dc6cab67fce452723dd8864736f6c634300080d0033",
  "immutableReferences": {},
  "source": "// SPDX-License-Identifier: MIT\r\npragma solidity ^0.8.13;\r\n\r\nlibrary LoanLibrary {\r\n    \r\n    function calculateInterest(uint256 amount, uint256 rate) public pure returns (uint256) {\r\n        return (amount * rate) / 100;\r\n    }\r\n}\r\n",
  "sourcePath": "C:\\Users\\sumur\\Desktop\\An3\\Sistem-de-Imprumuturi-DeFi\\contracts\\LoanLibrary.sol",
  "compiler": {
    "name": "solc",
    "version": "0.8.13+commit.abaa5c0e.Emscripten.clang"
  },
  "schemaVersion": "3.4.16",
  "updatedAt": "2025-02-21T08:22:10.381Z",
  "devdoc": {
    "kind": "dev",
    "methods": {},
    "version": 1
  },
  "userdoc": {
    "kind": "user",
    "methods": {},
    "version": 1
  }
}